{"abi":[{"type":"constructor","inputs":[{"name":"_DOMAIN_SEPARATOR","type":"bytes32","internalType":"bytes32"}],"stateMutability":"nonpayable"},{"type":"function","name":"PERMIT_TYPEHASH","inputs":[],"outputs":[{"name":"","type":"bytes32","internalType":"bytes32"}],"stateMutability":"view"},{"type":"function","name":"getTypedDataHash","inputs":[{"name":"_permit","type":"tuple","internalType":"struct SigUtils.Permit","components":[{"name":"owner","type":"address","internalType":"address"},{"name":"spender","type":"address","internalType":"address"},{"name":"value","type":"uint256","internalType":"uint256"},{"name":"nonce","type":"uint256","internalType":"uint256"},{"name":"deadline","type":"uint256","internalType":"uint256"}]}],"outputs":[{"name":"","type":"bytes32","internalType":"bytes32"}],"stateMutability":"view"}],"bytecode":{"object":"0x608060405234801561001057600080fd5b506040516102d23803806102d283398101604081905261002f91610037565b600055610050565b60006020828403121561004957600080fd5b5051919050565b6102738061005f6000396000f3fe608060405234801561001057600080fd5b50600436106100365760003560e01c806330adf81f1461003b578063ba20b89d14610074575b600080fd5b6100627f6e71edae12b1b97f4d1f60370fef10105fa2faae0126114a169c64845d6126c981565b60405190815260200160405180910390f35b61006261008236600461019a565b6000805461008f836100e6565b6040517f19010000000000000000000000000000000000000000000000000000000000006020820152602281019290925260428201526062015b604051602081830303815290604052805190602001209050919050565b80516020808301516040808501516060860151608087015192516000966100c9967f6e71edae12b1b97f4d1f60370fef10105fa2faae0126114a169c64845d6126c9969195919493920195865273ffffffffffffffffffffffffffffffffffffffff94851660208701529290931660408501526060840152608083019190915260a082015260c00190565b803573ffffffffffffffffffffffffffffffffffffffff8116811461019557600080fd5b919050565b600060a082840312156101ac57600080fd5b60405160a0810181811067ffffffffffffffff821117156101f6577f4e487b7100000000000000000000000000000000000000000000000000000000600052604160045260246000fd5b60405261020283610171565b815261021060208401610171565b6020820152604083013560408201526060830135606082015260808301356080820152809150509291505056fea26469706673582212206cee1ab092a7169980d8211bae087306a128ed624bd2c09bc39f70040812395a64736f6c63430008130033","linkReferences":{}},"methodIdentifiers":{"PERMIT_TYPEHASH()":"30adf81f","getTypedDataHash((address,address,uint256,uint256,uint256))":"ba20b89d"},"id":15}