{"abi":[{"type":"function","name":"deploy2","inputs":[{"name":"bytecode","type":"bytes","internalType":"bytes"},{"name":"_salt","type":"uint256","internalType":"uint256"}],"outputs":[],"stateMutability":"nonpayable"},{"type":"error","name":"ADDRESS_DERIVATION_ERROR","inputs":[]},{"type":"error","name":"USER_LACKS_ROLE","inputs":[]},{"type":"error","name":"USER_NOT_OWNER","inputs":[]}],"bytecode":{"object":"0x608060405234801561001057600080fd5b5061019b806100206000396000f3fe608060405234801561001057600080fd5b506004361061002b5760003560e01c8063b980a2b214610030575b600080fd5b61004361003e366004610092565b610045565b005b6000818351602085016000f59050803b61005e57600080fd5b505050565b7f4e487b7100000000000000000000000000000000000000000000000000000000600052604160045260246000fd5b600080604083850312156100a557600080fd5b823567ffffffffffffffff808211156100bd57600080fd5b818501915085601f8301126100d157600080fd5b8135818111156100e3576100e3610063565b604051601f82017fffffffffffffffffffffffffffffffffffffffffffffffffffffffffffffffe0908116603f0116810190838211818310171561012957610129610063565b8160405282815288602084870101111561014257600080fd5b82602086016020830137600060209382018401529896909101359650505050505056fea264697066735822122021d8466fe240654c65077cce6c45005389541133f8b6f9c71a236a32e790c26e64736f6c63430008130033","linkReferences":{}},"methodIdentifiers":{"deploy2(bytes,uint256)":"b980a2b2"},"id":62}