{"abi":[{"type":"constructor","inputs":[{"name":"_asset","type":"address","internalType":"contract IERC20"},{"name":"_initialRewarder","type":"address","internalType":"address"},{"name":"_owner","type":"address","internalType":"address"}],"stateMutability":"nonpayable"},{"type":"function","name":"DEFAULT_ADMIN_ROLE","inputs":[],"outputs":[{"name":"","type":"bytes32","internalType":"bytes32"}],"stateMutability":"view"},{"type":"function","name":"DOMAIN_SEPARATOR","inputs":[],"outputs":[{"name":"","type":"bytes32","internalType":"bytes32"}],"stateMutability":"view"},{"type":"function","name":"acceptAdmin","inputs":[],"outputs":[],"stateMutability":"nonpayable"},{"type":"function","name":"addToBlacklist","inputs":[{"name":"target","type":"address","internalType":"address"},{"name":"isFullBlacklisting","type":"bool","internalType":"bool"}],"outputs":[],"stateMutability":"nonpayable"},{"type":"function","name":"allowance","inputs":[{"name":"owner","type":"address","internalType":"address"},{"name":"spender","type":"address","internalType":"address"}],"outputs":[{"name":"","type":"uint256","internalType":"uint256"}],"stateMutability":"view"},{"type":"function","name":"approve","inputs":[{"name":"spender","type":"address","internalType":"address"},{"name":"amount","type":"uint256","internalType":"uint256"}],"outputs":[{"name":"","type":"bool","internalType":"bool"}],"stateMutability":"nonpayable"},{"type":"function","name":"asset","inputs":[],"outputs":[{"name":"","type":"address","internalType":"address"}],"stateMutability":"view"},{"type":"function","name":"balanceOf","inputs":[{"name":"account","type":"address","internalType":"address"}],"outputs":[{"name":"","type":"uint256","internalType":"uint256"}],"stateMutability":"view"},{"type":"function","name":"convertToAssets","inputs":[{"name":"shares","type":"uint256","internalType":"uint256"}],"outputs":[{"name":"","type":"uint256","internalType":"uint256"}],"stateMutability":"view"},{"type":"function","name":"convertToShares","inputs":[{"name":"assets","type":"uint256","internalType":"uint256"}],"outputs":[{"name":"","type":"uint256","internalType":"uint256"}],"stateMutability":"view"},{"type":"function","name":"decimals","inputs":[],"outputs":[{"name":"","type":"uint8","internalType":"uint8"}],"stateMutability":"pure"},{"type":"function","name":"decreaseAllowance","inputs":[{"name":"spender","type":"address","internalType":"address"},{"name":"subtractedValue","type":"uint256","internalType":"uint256"}],"outputs":[{"name":"","type":"bool","internalType":"bool"}],"stateMutability":"nonpayable"},{"type":"function","name":"deposit","inputs":[{"name":"assets","type":"uint256","internalType":"uint256"},{"name":"receiver","type":"address","internalType":"address"}],"outputs":[{"name":"","type":"uint256","internalType":"uint256"}],"stateMutability":"nonpayable"},{"type":"function","name":"eip712Domain","inputs":[],"outputs":[{"name":"fields","type":"bytes1","internalType":"bytes1"},{"name":"name","type":"string","internalType":"string"},{"name":"version","type":"string","internalType":"string"},{"name":"chainId","type":"uint256","internalType":"uint256"},{"name":"verifyingContract","type":"address","internalType":"address"},{"name":"salt","type":"bytes32","internalType":"bytes32"},{"name":"extensions","type":"uint256[]","internalType":"uint256[]"}],"stateMutability":"view"},{"type":"function","name":"getRoleAdmin","inputs":[{"name":"role","type":"bytes32","internalType":"bytes32"}],"outputs":[{"name":"","type":"bytes32","internalType":"bytes32"}],"stateMutability":"view"},{"type":"function","name":"getUnvestedAmount","inputs":[],"outputs":[{"name":"","type":"uint256","internalType":"uint256"}],"stateMutability":"view"},{"type":"function","name":"grantRole","inputs":[{"name":"role","type":"bytes32","internalType":"bytes32"},{"name":"account","type":"address","internalType":"address"}],"outputs":[],"stateMutability":"nonpayable"},{"type":"function","name":"hasRole","inputs":[{"name":"role","type":"bytes32","internalType":"bytes32"},{"name":"account","type":"address","internalType":"address"}],"outputs":[{"name":"","type":"bool","internalType":"bool"}],"stateMutability":"view"},{"type":"function","name":"increaseAllowance","inputs":[{"name":"spender","type":"address","internalType":"address"},{"name":"addedValue","type":"uint256","internalType":"uint256"}],"outputs":[{"name":"","type":"bool","internalType":"bool"}],"stateMutability":"nonpayable"},{"type":"function","name":"lastDistributionTimestamp","inputs":[],"outputs":[{"name":"","type":"uint256","internalType":"uint256"}],"stateMutability":"view"},{"type":"function","name":"maxDeposit","inputs":[{"name":"","type":"address","internalType":"address"}],"outputs":[{"name":"","type":"uint256","internalType":"uint256"}],"stateMutability":"view"},{"type":"function","name":"maxMint","inputs":[{"name":"","type":"address","internalType":"address"}],"outputs":[{"name":"","type":"uint256","internalType":"uint256"}],"stateMutability":"view"},{"type":"function","name":"maxRedeem","inputs":[{"name":"owner","type":"address","internalType":"address"}],"outputs":[{"name":"","type":"uint256","internalType":"uint256"}],"stateMutability":"view"},{"type":"function","name":"maxWithdraw","inputs":[{"name":"owner","type":"address","internalType":"address"}],"outputs":[{"name":"","type":"uint256","internalType":"uint256"}],"stateMutability":"view"},{"type":"function","name":"mint","inputs":[{"name":"shares","type":"uint256","internalType":"uint256"},{"name":"receiver","type":"address","internalType":"address"}],"outputs":[{"name":"","type":"uint256","internalType":"uint256"}],"stateMutability":"nonpayable"},{"type":"function","name":"name","inputs":[],"outputs":[{"name":"","type":"string","internalType":"string"}],"stateMutability":"view"},{"type":"function","name":"nonces","inputs":[{"name":"owner","type":"address","internalType":"address"}],"outputs":[{"name":"","type":"uint256","internalType":"uint256"}],"stateMutability":"view"},{"type":"function","name":"owner","inputs":[],"outputs":[{"name":"","type":"address","internalType":"address"}],"stateMutability":"view"},{"type":"function","name":"permit","inputs":[{"name":"owner","type":"address","internalType":"address"},{"name":"spender","type":"address","internalType":"address"},{"name":"value","type":"uint256","internalType":"uint256"},{"name":"deadline","type":"uint256","internalType":"uint256"},{"name":"v","type":"uint8","internalType":"uint8"},{"name":"r","type":"bytes32","internalType":"bytes32"},{"name":"s","type":"bytes32","internalType":"bytes32"}],"outputs":[],"stateMutability":"nonpayable"},{"type":"function","name":"previewDeposit","inputs":[{"name":"assets","type":"uint256","internalType":"uint256"}],"outputs":[{"name":"","type":"uint256","internalType":"uint256"}],"stateMutability":"view"},{"type":"function","name":"previewMint","inputs":[{"name":"shares","type":"uint256","internalType":"uint256"}],"outputs":[{"name":"","type":"uint256","internalType":"uint256"}],"stateMutability":"view"},{"type":"function","name":"previewRedeem","inputs":[{"name":"shares","type":"uint256","internalType":"uint256"}],"outputs":[{"name":"","type":"uint256","internalType":"uint256"}],"stateMutability":"view"},{"type":"function","name":"previewWithdraw","inputs":[{"name":"assets","type":"uint256","internalType":"uint256"}],"outputs":[{"name":"","type":"uint256","internalType":"uint256"}],"stateMutability":"view"},{"type":"function","name":"redeem","inputs":[{"name":"shares","type":"uint256","internalType":"uint256"},{"name":"receiver","type":"address","internalType":"address"},{"name":"owner","type":"address","internalType":"address"}],"outputs":[{"name":"","type":"uint256","internalType":"uint256"}],"stateMutability":"nonpayable"},{"type":"function","name":"redistributeLockedAmount","inputs":[{"name":"from","type":"address","internalType":"address"},{"name":"to","type":"address","internalType":"address"}],"outputs":[],"stateMutability":"nonpayable"},{"type":"function","name":"removeFromBlacklist","inputs":[{"name":"target","type":"address","internalType":"address"},{"name":"isFullBlacklisting","type":"bool","internalType":"bool"}],"outputs":[],"stateMutability":"nonpayable"},{"type":"function","name":"renounceRole","inputs":[{"name":"","type":"bytes32","internalType":"bytes32"},{"name":"","type":"address","internalType":"address"}],"outputs":[],"stateMutability":"nonpayable"},{"type":"function","name":"rescueTokens","inputs":[{"name":"token","type":"address","internalType":"address"},{"name":"amount","type":"uint256","internalType":"uint256"},{"name":"to","type":"address","internalType":"address"}],"outputs":[],"stateMutability":"nonpayable"},{"type":"function","name":"revokeRole","inputs":[{"name":"role","type":"bytes32","internalType":"bytes32"},{"name":"account","type":"address","internalType":"address"}],"outputs":[],"stateMutability":"nonpayable"},{"type":"function","name":"supportsInterface","inputs":[{"name":"interfaceId","type":"bytes4","internalType":"bytes4"}],"outputs":[{"name":"","type":"bool","internalType":"bool"}],"stateMutability":"view"},{"type":"function","name":"symbol","inputs":[],"outputs":[{"name":"","type":"string","internalType":"string"}],"stateMutability":"view"},{"type":"function","name":"totalAssets","inputs":[],"outputs":[{"name":"","type":"uint256","internalType":"uint256"}],"stateMutability":"view"},{"type":"function","name":"totalSupply","inputs":[],"outputs":[{"name":"","type":"uint256","internalType":"uint256"}],"stateMutability":"view"},{"type":"function","name":"transfer","inputs":[{"name":"to","type":"address","internalType":"address"},{"name":"amount","type":"uint256","internalType":"uint256"}],"outputs":[{"name":"","type":"bool","internalType":"bool"}],"stateMutability":"nonpayable"},{"type":"function","name":"transferAdmin","inputs":[{"name":"newAdmin","type":"address","internalType":"address"}],"outputs":[],"stateMutability":"nonpayable"},{"type":"function","name":"transferFrom","inputs":[{"name":"from","type":"address","internalType":"address"},{"name":"to","type":"address","internalType":"address"},{"name":"amount","type":"uint256","internalType":"uint256"}],"outputs":[{"name":"","type":"bool","internalType":"bool"}],"stateMutability":"nonpayable"},{"type":"function","name":"transferInRewards","inputs":[{"name":"amount","type":"uint256","internalType":"uint256"}],"outputs":[],"stateMutability":"nonpayable"},{"type":"function","name":"vestingAmount","inputs":[],"outputs":[{"name":"","type":"uint256","internalType":"uint256"}],"stateMutability":"view"},{"type":"function","name":"withdraw","inputs":[{"name":"assets","type":"uint256","internalType":"uint256"},{"name":"receiver","type":"address","internalType":"address"},{"name":"owner","type":"address","internalType":"address"}],"outputs":[{"name":"","type":"uint256","internalType":"uint256"}],"stateMutability":"nonpayable"},{"type":"event","name":"AdminTransferRequested","inputs":[{"name":"oldAdmin","type":"address","indexed":true,"internalType":"address"},{"name":"newAdmin","type":"address","indexed":true,"internalType":"address"}],"anonymous":false},{"type":"event","name":"AdminTransferred","inputs":[{"name":"oldAdmin","type":"address","indexed":true,"internalType":"address"},{"name":"newAdmin","type":"address","indexed":true,"internalType":"address"}],"anonymous":false},{"type":"event","name":"Approval","inputs":[{"name":"owner","type":"address","indexed":true,"internalType":"address"},{"name":"spender","type":"address","indexed":true,"internalType":"address"},{"name":"value","type":"uint256","indexed":false,"internalType":"uint256"}],"anonymous":false},{"type":"event","name":"Deposit","inputs":[{"name":"sender","type":"address","indexed":true,"internalType":"address"},{"name":"owner","type":"address","indexed":true,"internalType":"address"},{"name":"assets","type":"uint256","indexed":false,"internalType":"uint256"},{"name":"shares","type":"uint256","indexed":false,"internalType":"uint256"}],"anonymous":false},{"type":"event","name":"EIP712DomainChanged","inputs":[],"anonymous":false},{"type":"event","name":"LockedAmountRedistributed","inputs":[{"name":"from","type":"address","indexed":true,"internalType":"address"},{"name":"to","type":"address","indexed":true,"internalType":"address"},{"name":"amount","type":"uint256","indexed":false,"internalType":"uint256"}],"anonymous":false},{"type":"event","name":"RewardsReceived","inputs":[{"name":"amount","type":"uint256","indexed":true,"internalType":"uint256"},{"name":"newVestingUSDeAmount","type":"uint256","indexed":false,"internalType":"uint256"}],"anonymous":false},{"type":"event","name":"RoleAdminChanged","inputs":[{"name":"role","type":"bytes32","indexed":true,"internalType":"bytes32"},{"name":"previousAdminRole","type":"bytes32","indexed":true,"internalType":"bytes32"},{"name":"newAdminRole","type":"bytes32","indexed":true,"internalType":"bytes32"}],"anonymous":false},{"type":"event","name":"RoleGranted","inputs":[{"name":"role","type":"bytes32","indexed":true,"internalType":"bytes32"},{"name":"account","type":"address","indexed":true,"internalType":"address"},{"name":"sender","type":"address","indexed":true,"internalType":"address"}],"anonymous":false},{"type":"event","name":"RoleRevoked","inputs":[{"name":"role","type":"bytes32","indexed":true,"internalType":"bytes32"},{"name":"account","type":"address","indexed":true,"internalType":"address"},{"name":"sender","type":"address","indexed":true,"internalType":"address"}],"anonymous":false},{"type":"event","name":"Transfer","inputs":[{"name":"from","type":"address","indexed":true,"internalType":"address"},{"name":"to","type":"address","indexed":true,"internalType":"address"},{"name":"value","type":"uint256","indexed":false,"internalType":"uint256"}],"anonymous":false},{"type":"event","name":"Withdraw","inputs":[{"name":"sender","type":"address","indexed":true,"internalType":"address"},{"name":"receiver","type":"address","indexed":true,"internalType":"address"},{"name":"owner","type":"address","indexed":true,"internalType":"address"},{"name":"assets","type":"uint256","indexed":false,"internalType":"uint256"},{"name":"shares","type":"uint256","indexed":false,"internalType":"uint256"}],"anonymous":false},{"type":"error","name":"CantBlacklistOwner","inputs":[]},{"type":"error","name":"InvalidAdminChange","inputs":[]},{"type":"error","name":"InvalidAmount","inputs":[]},{"type":"error","name":"InvalidShortString","inputs":[]},{"type":"error","name":"InvalidToken","inputs":[]},{"type":"error","name":"InvalidZeroAddress","inputs":[]},{"type":"error","name":"MinSharesViolation","inputs":[]},{"type":"error","name":"NotPendingAdmin","inputs":[]},{"type":"error","name":"OperationNotAllowed","inputs":[]},{"type":"error","name":"SlippageExceeded","inputs":[]},{"type":"error","name":"StillVesting","inputs":[]},{"type":"error","name":"StringTooLong","inputs":[{"name":"str","type":"string","internalType":"string"}]}],"bytecode":{"object":"0x6101a06040523480156200001257600080fd5b506040516200445838038062004458833981016040819052620000359162000573565b60408051808201825260068082526573745553446560d01b6020808401829052845180860186526001808252603160f81b8284015286518088018852600b81526a5374616b6564205553446560a81b8185015287518089019098529487529186019290925260035586938392906007620000b083826200066c565b506008620000bf82826200066c565b50620000d1915083905060096200023e565b61012052620000e281600a6200023e565b61014052815160208084019190912060e052815190820120610100524660a0526200017060e05161010051604080517f8b73c3c69bb8fe3d512ecc4cf759cc79239f7b179b0ffacaa9a75d522b39400f60208201529081019290925260608201524660808201523060a082015260009060c00160405160208183030381529060405280519060200120905090565b60805250503060c05250600080620001888362000277565b91509150816200019a5760126200019c565b805b60ff166101805250506001600160a01b039081166101605281161580620001ca57506001600160a01b038216155b80620001dd57506001600160a01b038316155b15620001fc5760405163f6b2911f60e01b815260040160405180910390fd5b620002287fbeec13769b5f410b0584f69811bfd923818456d5edcf426b0e31cf90eed7a3f6836200035c565b620002356000826200035c565b505050620007f0565b60006020835110156200025e576200025683620003ee565b905062000271565b816200026b84826200066c565b5060ff90505b92915050565b60408051600481526024810182526020810180516001600160e01b031663313ce56760e01b17905290516000918291829182916001600160a01b03871691620002c0916200075e565b600060405180830381855afa9150503d8060008114620002fd576040519150601f19603f3d011682016040523d82523d6000602084013e62000302565b606091505b50915091508180156200031757506020815110155b156200034f576000818060200190518101906200033591906200077c565b905060ff81116200034d576001969095509350505050565b505b5060009485945092505050565b81620003de576001546040516001600160a01b038084169216907ff8ccb027dfcd135e000e9d45e6cc2d662578a8825d4c45b5e32e0adf67e79ec690600090a3600154620003b6906000906001600160a01b03166200043a565b600180546001600160a01b0383166001600160a01b0319918216179091556002805490911690555b620003ea8282620004ba565b5050565b600080829050601f8151111562000425578260405163305a27a960e01b81526004016200041c919062000796565b60405180910390fd5b80516200043282620007cb565b179392505050565b6000828152602081815260408083206001600160a01b038516845290915290205460ff1615620003ea576000828152602081815260408083206001600160a01b0385168085529252808320805460ff1916905551339285917ff6391f5c32d9c69d2a47ea670b442974b53935d1edc7fd64eb21e047a839171b9190a45050565b6000828152602081815260408083206001600160a01b038516845290915290205460ff16620003ea576000828152602081815260408083206001600160a01b03851684529091529020805460ff19166001179055620005163390565b6001600160a01b0316816001600160a01b0316837f2f8788117e7eff1d82e926ec794901d17c78024a50270940304540a733656f0d60405160405180910390a45050565b6001600160a01b03811681146200057057600080fd5b50565b6000806000606084860312156200058957600080fd5b835162000596816200055a565b6020850151909350620005a9816200055a565b6040850151909250620005bc816200055a565b809150509250925092565b634e487b7160e01b600052604160045260246000fd5b600181811c90821680620005f257607f821691505b6020821081036200061357634e487b7160e01b600052602260045260246000fd5b50919050565b601f8211156200066757600081815260208120601f850160051c81016020861015620006425750805b601f850160051c820191505b8181101562000663578281556001016200064e565b5050505b505050565b81516001600160401b03811115620006885762000688620005c7565b620006a081620006998454620005dd565b8462000619565b602080601f831160018114620006d85760008415620006bf5750858301515b600019600386901b1c1916600185901b17855562000663565b600085815260208120601f198616915b828110156200070957888601518255948401946001909101908401620006e8565b5085821015620007285787850151600019600388901b60f8161c191681555b5050505050600190811b01905550565b60005b83811015620007555781810151838201526020016200073b565b50506000910152565b600082516200077281846020870162000738565b9190910192915050565b6000602082840312156200078f57600080fd5b5051919050565b6020815260008251806020840152620007b781604085016020870162000738565b601f01601f19169190910160400192915050565b80516020808301519190811015620006135760001960209190910360031b1b16919050565b60805160a05160c05160e0516101005161012051610140516101605161018051613bd76200088160003960005050600081816104540152818161076501528181610f21015281816112c7015281816129a50152612c1a01526000610c3e01526000610c1301526000611d5501526000611d2d01526000611c8801526000611cb201526000611cdc0152613bd76000f3fe608060405234801561001057600080fd5b506004361061032a5760003560e01c806384b0196e116101b2578063ba087652116100f9578063d505accf116100a2578063dd62ed3e1161007c578063dd62ed3e146106f8578063e7c2a6081461073e578063ef8b30f714610686578063f298f42c1461074657600080fd5b8063d505accf146106bf578063d547741f146106d2578063d905777e146106e557600080fd5b8063c6e6f592116100d3578063c6e6f59214610686578063c80ef11014610699578063ce96cb77146106ac57600080fd5b8063ba08765214610660578063c336a08414610673578063c63d75b6146104ac57600080fd5b8063a217fddf1161015b578063b37fd19011610135578063b37fd19014610627578063b3d7f6b91461063a578063b460af941461064d57600080fd5b8063a217fddf146105f9578063a457c2d714610601578063a9059cbb1461061457600080fd5b806394bf804d1161018c57806394bf804d146105cb57806395d89b41146105de578063a0776b82146105e657600080fd5b806384b0196e1461054e5780638da5cb5b1461056957806391d148541461058757600080fd5b80632f2ff15d11610276578063402d267d1161021f57806370a08231116101f957806370a08231146104f257806375829def146105285780637ecebe001461053b57600080fd5b8063402d267d146104ac5780634cdad5061461038b5780636e553f65146104df57600080fd5b806336568abe1161025057806336568abe1461043f57806338d52e0f14610452578063395093511461049957600080fd5b80632f2ff15d14610415578063313ce567146104285780633644e5151461043757600080fd5b80630a28a477116102d857806320950933116102b257806320950933146103d657806323b872dd146103df578063248a9ca3146103f257600080fd5b80630a28a477146103b15780630e18b681146103c457806318160ddd146103ce57600080fd5b806306fdde031161030957806306fdde031461037657806307a2d13a1461038b578063095ea7b31461039e57600080fd5b8062728f761461032f57806301e1d1141461034b57806301ffc9a714610353575b600080fd5b610338600d5481565b6040519081526020015b60405180910390f35b610338610759565b6103666103613660046133f8565b610823565b6040519015158152602001610342565b61037e6108bc565b60405161034291906134a8565b6103386103993660046134bb565b61094e565b6103666103ac3660046134fd565b61095b565b6103386103bf3660046134bb565b610973565b6103cc610980565b005b600654610338565b610338600e5481565b6103666103ed366004613527565b6109de565b6103386104003660046134bb565b60009081526020819052604090206001015490565b6103cc610423366004613563565b610a04565b60405160128152602001610342565b610338610a57565b6103cc61044d366004613563565b610a61565b7f00000000000000000000000000000000000000000000000000000000000000005b60405173ffffffffffffffffffffffffffffffffffffffff9091168152602001610342565b6103666104a73660046134fd565b610a93565b6103386104ba36600461358f565b507fffffffffffffffffffffffffffffffffffffffffffffffffffffffffffffffff90565b6103386104ed366004613563565b610adf565b61033861050036600461358f565b73ffffffffffffffffffffffffffffffffffffffff1660009081526004602052604090205490565b6103cc61053636600461358f565b610b08565b61033861054936600461358f565b610bda565b610556610c05565b60405161034297969594939291906135aa565b60015473ffffffffffffffffffffffffffffffffffffffff16610474565b610366610595366004613563565b60009182526020828152604080842073ffffffffffffffffffffffffffffffffffffffff93909316845291905290205460ff1690565b6103386105d9366004613563565b610caa565b61037e610cc4565b6103cc6105f4366004613669565b610cd3565b610338600081565b61036661060f3660046134fd565b610e44565b6103666106223660046134fd565b610f06565b6103cc610635366004613693565b610f14565b6103386106483660046134bb565b610fc5565b61033861065b3660046136cf565b610fd2565b61033861066e3660046136cf565b61104e565b6103cc610681366004613710565b6110c2565b6103386106943660046134bb565b6111d2565b6103cc6106a73660046134bb565b6111df565b6103386106ba36600461358f565b611339565b6103cc6106cd366004613747565b61136a565b6103cc6106e0366004613563565b6114f5565b6103386106f336600461358f565b611542565b610338610706366004613669565b73ffffffffffffffffffffffffffffffffffffffff918216600090815260056020908152604080832093909416825291909152205490565b61033861156d565b6103cc610754366004613710565b6115bc565b600061076361156d565b7f00000000000000000000000000000000000000000000000000000000000000006040517f70a0823100000000000000000000000000000000000000000000000000000000815230600482015273ffffffffffffffffffffffffffffffffffffffff91909116906370a0823190602401602060405180830381865afa1580156107f0573d6000803e3d6000fd5b505050506040513d601f19601f8201168201806040525081019061081491906137ba565b61081e9190613802565b905090565b60007fffffffff0000000000000000000000000000000000000000000000000000000082167f7965db0b0000000000000000000000000000000000000000000000000000000014806108b657507f01ffc9a7000000000000000000000000000000000000000000000000000000007fffffffff000000000000000000000000000000000000000000000000000000008316145b92915050565b6060600780546108cb90613815565b80601f01602080910402602001604051908101604052809291908181526020018280546108f790613815565b80156109445780601f1061091957610100808354040283529160200191610944565b820191906000526020600020905b81548152906001019060200180831161092757829003601f168201915b5050505050905090565b60006108b68260006116c5565b6000336109698185856116ff565b5060019392505050565b60006108b682600161187e565b60025473ffffffffffffffffffffffffffffffffffffffff1633146109d1576040517f058d9a1b00000000000000000000000000000000000000000000000000000000815260040160405180910390fd5b6109dc6000336118ae565b565b6000336109ec85828561197a565b6109f7858585611a31565b60019150505b9392505050565b6000610a0f81611c64565b8280610a47576040517f6317a0fa00000000000000000000000000000000000000000000000000000000815260040160405180910390fd5b610a5184846118ae565b50505050565b600061081e611c6e565b6040517ff50a3b5200000000000000000000000000000000000000000000000000000000815260040160405180910390fd5b33600081815260056020908152604080832073ffffffffffffffffffffffffffffffffffffffff871684529091528120549091906109699082908690610ada908790613862565b6116ff565b6000610aef565b60405180910390fd5b6000610afa846111d2565b90506109fd33848684611da6565b6000610b1381611c64565b3373ffffffffffffffffffffffffffffffffffffffff831603610b62576040517f6317a0fa00000000000000000000000000000000000000000000000000000000815260040160405180910390fd5b600280547fffffffffffffffffffffffff00000000000000000000000000000000000000001673ffffffffffffffffffffffffffffffffffffffff848116918217909255600154604051919216907fefdcbba819467e00b0262c12892dda980bac68580b72178e57a162368b80876690600090a35050565b73ffffffffffffffffffffffffffffffffffffffff81166000908152600b60205260408120546108b6565b600060608082808083610c397f00000000000000000000000000000000000000000000000000000000000000006009611f12565b610c647f0000000000000000000000000000000000000000000000000000000000000000600a611f12565b604080516000808252602082019092527f0f000000000000000000000000000000000000000000000000000000000000009b939a50919850469750309650945092509050565b600080610cb684610fc5565b90506109fd33848387611da6565b6060600880546108cb90613815565b6000610cde81611c64565b73ffffffffffffffffffffffffffffffffffffffff831660009081527f1b6393e878bd556f19ddc4d62b1faf8b79d68ac5561b3277e15c2f28fb3b2820602052604090205460ff168015610d77575073ffffffffffffffffffffffffffffffffffffffff821660009081527f1b6393e878bd556f19ddc4d62b1faf8b79d68ac5561b3277e15c2f28fb3b2820602052604090205460ff16155b15610a615773ffffffffffffffffffffffffffffffffffffffff8316600090815260046020526040902054610dac8482611fbd565b73ffffffffffffffffffffffffffffffffffffffff831615610dd257610dd2838261215b565b8273ffffffffffffffffffffffffffffffffffffffff168473ffffffffffffffffffffffffffffffffffffffff167fb8ef21f2b52f8ca740012254a6b10f17d2fd6e589f97ebf401fde0e8b921893783604051610e3191815260200190565b60405180910390a350505050565b505050565b33600081815260056020908152604080832073ffffffffffffffffffffffffffffffffffffffff8716845290915281205490919083811015610eee5760405162461bcd60e51b815260206004820152602560248201527f45524332303a2064656372656173656420616c6c6f77616e63652062656c6f7760448201527f207a65726f0000000000000000000000000000000000000000000000000000006064820152608401610ae6565b610efb82868684036116ff565b506001949350505050565b600033610969818585611a31565b6000610f1f81611c64565b7f000000000000000000000000000000000000000000000000000000000000000073ffffffffffffffffffffffffffffffffffffffff168473ffffffffffffffffffffffffffffffffffffffff1603610fa4576040517fc1ab6dc100000000000000000000000000000000000000000000000000000000815260040160405180910390fd5b610a5173ffffffffffffffffffffffffffffffffffffffff85168385612242565b60006108b68260016116c5565b6000610fdd82611339565b84111561102c5760405162461bcd60e51b815260206004820152601f60248201527f455243343632363a207769746864726177206d6f7265207468616e206d6178006044820152606401610ae6565b600061103785610973565b90506110463385858885612316565b949350505050565b600061105982611542565b8411156110a85760405162461bcd60e51b815260206004820152601d60248201527f455243343632363a2072656465656d206d6f7265207468616e206d61780000006044820152606401610ae6565b60006110b38561094e565b90506110463385858489612316565b7ff988e4fb62b8e14f4820fed03192306ddf4d7dbfa215595ba1c6ba4b76b369ee6110ec81611c64565b8261110c60015473ffffffffffffffffffffffffffffffffffffffff1690565b73ffffffffffffffffffffffffffffffffffffffff168173ffffffffffffffffffffffffffffffffffffffff1603611170576040517ffe7c574000000000000000000000000000000000000000000000000000000000815260040160405180910390fd5b60008361119d577f8f7080408a06296c6347c87c115ad99669141ae35eae974c12dff8bd01680cb66111bf565b7f0a4af4bcc1942295207d9f047442ebdae6170a6e324850f758b14cf99b65c3bd5b90506111cb8186612483565b5050505050565b60006108b682600061187e565b6111e761253a565b7fbeec13769b5f410b0584f69811bfd923818456d5edcf426b0e31cf90eed7a3f661121181611c64565b818060000361124c576040517f2c5211c600000000000000000000000000000000000000000000000000000000815260040160405180910390fd5b600061125661156d565b111561128e576040517f010133de00000000000000000000000000000000000000000000000000000000815260040160405180910390fd5b600061129861156d565b6112a29085613862565b600d81905542600e5590506112ef73ffffffffffffffffffffffffffffffffffffffff7f000000000000000000000000000000000000000000000000000000000000000016333087612593565b837f61cb44cbea389abb97c617c7d16a62235c51f27da3406d3ec3c9ac87c0d0c8268260405161132191815260200190565b60405180910390a25050506113366001600355565b50565b73ffffffffffffffffffffffffffffffffffffffff81166000908152600460205260408120546108b69060006116c5565b834211156113ba5760405162461bcd60e51b815260206004820152601d60248201527f45524332305065726d69743a206578706972656420646561646c696e650000006044820152606401610ae6565b60007f6e71edae12b1b97f4d1f60370fef10105fa2faae0126114a169c64845d6126c98888886113e98c6125f1565b60408051602081019690965273ffffffffffffffffffffffffffffffffffffffff94851690860152929091166060840152608083015260a082015260c0810186905260e001604051602081830303815290604052805190602001209050600061145182612626565b905060006114618287878761266e565b90508973ffffffffffffffffffffffffffffffffffffffff168173ffffffffffffffffffffffffffffffffffffffff16146114de5760405162461bcd60e51b815260206004820152601e60248201527f45524332305065726d69743a20696e76616c6964207369676e617475726500006044820152606401610ae6565b6114e98a8a8a6116ff565b50505050505050505050565b600061150081611c64565b8280611538576040517f6317a0fa00000000000000000000000000000000000000000000000000000000815260040160405180910390fd5b610a518484612483565b73ffffffffffffffffffffffffffffffffffffffff81166000908152600460205260408120546108b6565b600080600e544261157e9190613802565b9050617080811061159157600091505090565b600d54617080906115a28383613802565b6115ac91906138a4565b6115b691906138ea565b91505090565b7ff988e4fb62b8e14f4820fed03192306ddf4d7dbfa215595ba1c6ba4b76b369ee6115e681611c64565b8261160660015473ffffffffffffffffffffffffffffffffffffffff1690565b73ffffffffffffffffffffffffffffffffffffffff168173ffffffffffffffffffffffffffffffffffffffff160361166a576040517ffe7c574000000000000000000000000000000000000000000000000000000000815260040160405180910390fd5b600083611697577f8f7080408a06296c6347c87c115ad99669141ae35eae974c12dff8bd01680cb66116b9565b7f0a4af4bcc1942295207d9f047442ebdae6170a6e324850f758b14cf99b65c3bd5b90506111cb81866118ae565b60006109fd6116d2610759565b6116dd906001613862565b6116e96000600a613a45565b6006546116f69190613862565b85919085612696565b73ffffffffffffffffffffffffffffffffffffffff83166117875760405162461bcd60e51b8152602060048201526024808201527f45524332303a20617070726f76652066726f6d20746865207a65726f2061646460448201527f72657373000000000000000000000000000000000000000000000000000000006064820152608401610ae6565b73ffffffffffffffffffffffffffffffffffffffff82166118105760405162461bcd60e51b815260206004820152602260248201527f45524332303a20617070726f766520746f20746865207a65726f20616464726560448201527f73730000000000000000000000000000000000000000000000000000000000006064820152608401610ae6565b73ffffffffffffffffffffffffffffffffffffffff83811660008181526005602090815260408083209487168084529482529182902085905590518481527f8c5be1e5ebec7d5bd14f71427d1e84f3dd0314c0f7b2291e5b200ac8c7c3b925910160405180910390a3505050565b60006109fd61188e82600a613a45565b60065461189b9190613862565b6118a3610759565b6116f6906001613862565b8161196c5760015460405173ffffffffffffffffffffffffffffffffffffffff8084169216907ff8ccb027dfcd135e000e9d45e6cc2d662578a8825d4c45b5e32e0adf67e79ec690600090a360015461191f9060009073ffffffffffffffffffffffffffffffffffffffff16612483565b6001805473ffffffffffffffffffffffffffffffffffffffff83167fffffffffffffffffffffffff0000000000000000000000000000000000000000918216179091556002805490911690555b61197682826126f3565b5050565b73ffffffffffffffffffffffffffffffffffffffff8381166000908152600560209081526040808320938616835292905220547fffffffffffffffffffffffffffffffffffffffffffffffffffffffffffffffff8114610a515781811015611a245760405162461bcd60e51b815260206004820152601d60248201527f45524332303a20696e73756666696369656e7420616c6c6f77616e63650000006044820152606401610ae6565b610a5184848484036116ff565b73ffffffffffffffffffffffffffffffffffffffff8316611aba5760405162461bcd60e51b815260206004820152602560248201527f45524332303a207472616e736665722066726f6d20746865207a65726f20616460448201527f64726573730000000000000000000000000000000000000000000000000000006064820152608401610ae6565b73ffffffffffffffffffffffffffffffffffffffff8216611b435760405162461bcd60e51b815260206004820152602360248201527f45524332303a207472616e7366657220746f20746865207a65726f206164647260448201527f65737300000000000000000000000000000000000000000000000000000000006064820152608401610ae6565b611b4e8383836127e3565b73ffffffffffffffffffffffffffffffffffffffff831660009081526004602052604090205481811015611bea5760405162461bcd60e51b815260206004820152602660248201527f45524332303a207472616e7366657220616d6f756e742065786365656473206260448201527f616c616e636500000000000000000000000000000000000000000000000000006064820152608401610ae6565b73ffffffffffffffffffffffffffffffffffffffff80851660008181526004602052604080822086860390559286168082529083902080548601905591517fddf252ad1be2c89b69c2b068fc378daa952ba7f163c4a11628f55a4df523b3ef90611c579086815260200190565b60405180910390a3610a51565b6113368133612902565b60003073ffffffffffffffffffffffffffffffffffffffff7f000000000000000000000000000000000000000000000000000000000000000016148015611cd457507f000000000000000000000000000000000000000000000000000000000000000046145b15611cfe57507f000000000000000000000000000000000000000000000000000000000000000090565b61081e604080517f8b73c3c69bb8fe3d512ecc4cf759cc79239f7b179b0ffacaa9a75d522b39400f60208201527f0000000000000000000000000000000000000000000000000000000000000000918101919091527f000000000000000000000000000000000000000000000000000000000000000060608201524660808201523060a082015260009060c00160405160208183030381529060405280519060200120905090565b611dae61253a565b8180600003611de9576040517f2c5211c600000000000000000000000000000000000000000000000000000000815260040160405180910390fd5b8180600003611e24576040517f2c5211c600000000000000000000000000000000000000000000000000000000815260040160405180910390fd5b73ffffffffffffffffffffffffffffffffffffffff861660009081527f0345e2c1516a911f2186107e484f2e7d92495a743775dfd87a2ea9407a42f659602052604090205460ff1680611ebb575073ffffffffffffffffffffffffffffffffffffffff851660009081527f0345e2c1516a911f2186107e484f2e7d92495a743775dfd87a2ea9407a42f659602052604090205460ff165b15611ef2576040517ff50a3b5200000000000000000000000000000000000000000000000000000000815260040160405180910390fd5b611efe868686866129a0565b611f06612a3e565b5050610a516001600355565b606060ff8314611f2c57611f2583612a99565b90506108b6565b818054611f3890613815565b80601f0160208091040260200160405190810160405280929190818152602001828054611f6490613815565b8015611fb15780601f10611f8657610100808354040283529160200191611fb1565b820191906000526020600020905b815481529060010190602001808311611f9457829003601f168201915b505050505090506108b6565b73ffffffffffffffffffffffffffffffffffffffff82166120465760405162461bcd60e51b815260206004820152602160248201527f45524332303a206275726e2066726f6d20746865207a65726f2061646472657360448201527f73000000000000000000000000000000000000000000000000000000000000006064820152608401610ae6565b612052826000836127e3565b73ffffffffffffffffffffffffffffffffffffffff8216600090815260046020526040902054818110156120ee5760405162461bcd60e51b815260206004820152602260248201527f45524332303a206275726e20616d6f756e7420657863656564732062616c616e60448201527f63650000000000000000000000000000000000000000000000000000000000006064820152608401610ae6565b73ffffffffffffffffffffffffffffffffffffffff831660008181526004602090815260408083208686039055600680548790039055518581529192917fddf252ad1be2c89b69c2b068fc378daa952ba7f163c4a11628f55a4df523b3ef910160405180910390a3505050565b73ffffffffffffffffffffffffffffffffffffffff82166121be5760405162461bcd60e51b815260206004820152601f60248201527f45524332303a206d696e7420746f20746865207a65726f2061646472657373006044820152606401610ae6565b6121ca600083836127e3565b80600660008282546121dc9190613862565b909155505073ffffffffffffffffffffffffffffffffffffffff82166000818152600460209081526040808320805486019055518481527fddf252ad1be2c89b69c2b068fc378daa952ba7f163c4a11628f55a4df523b3ef910160405180910390a35050565b60405173ffffffffffffffffffffffffffffffffffffffff8316602482015260448101829052610e3f9084907fa9059cbb00000000000000000000000000000000000000000000000000000000906064015b604080517fffffffffffffffffffffffffffffffffffffffffffffffffffffffffffffffe08184030181529190526020810180517bffffffffffffffffffffffffffffffffffffffffffffffffffffffff167fffffffff0000000000000000000000000000000000000000000000000000000090931692909217909152612ad8565b61231e61253a565b8180600003612359576040517f2c5211c600000000000000000000000000000000000000000000000000000000815260040160405180910390fd5b8180600003612394576040517f2c5211c600000000000000000000000000000000000000000000000000000000815260040160405180910390fd5b73ffffffffffffffffffffffffffffffffffffffff871660009081527f1b6393e878bd556f19ddc4d62b1faf8b79d68ac5561b3277e15c2f28fb3b2820602052604090205460ff168061242b575073ffffffffffffffffffffffffffffffffffffffff861660009081527f1b6393e878bd556f19ddc4d62b1faf8b79d68ac5561b3277e15c2f28fb3b2820602052604090205460ff165b15612462576040517ff50a3b5200000000000000000000000000000000000000000000000000000000815260040160405180910390fd5b61246f8787878787612bcd565b612477612a3e565b50506111cb6001600355565b60008281526020818152604080832073ffffffffffffffffffffffffffffffffffffffff8516845290915290205460ff16156119765760008281526020818152604080832073ffffffffffffffffffffffffffffffffffffffff8516808552925280832080547fffffffffffffffffffffffffffffffffffffffffffffffffffffffffffffff0016905551339285917ff6391f5c32d9c69d2a47ea670b442974b53935d1edc7fd64eb21e047a839171b9190a45050565b60026003540361258c5760405162461bcd60e51b815260206004820152601f60248201527f5265656e7472616e637947756172643a207265656e7472616e742063616c6c006044820152606401610ae6565b6002600355565b60405173ffffffffffffffffffffffffffffffffffffffff80851660248301528316604482015260648101829052610a519085907f23b872dd0000000000000000000000000000000000000000000000000000000090608401612294565b73ffffffffffffffffffffffffffffffffffffffff81166000908152600b602052604090208054600181018255905b50919050565b60006108b6612633611c6e565b836040517f19010000000000000000000000000000000000000000000000000000000000008152600281019290925260228201526042902090565b600080600061267f87878787612cce565b9150915061268c81612dbd565b5095945050505050565b6000806126a4868686612f22565b905060018360028111156126ba576126ba613a54565b1480156126d75750600084806126d2576126d26138bb565b868809115b156126ea576126e7600182613862565b90505b95945050505050565b60008281526020818152604080832073ffffffffffffffffffffffffffffffffffffffff8516845290915290205460ff166119765760008281526020818152604080832073ffffffffffffffffffffffffffffffffffffffff85168452909152902080547fffffffffffffffffffffffffffffffffffffffffffffffffffffffffffffff001660011790556127853390565b73ffffffffffffffffffffffffffffffffffffffff168173ffffffffffffffffffffffffffffffffffffffff16837f2f8788117e7eff1d82e926ec794901d17c78024a50270940304540a733656f0d60405160405180910390a45050565b73ffffffffffffffffffffffffffffffffffffffff831660009081527f1b6393e878bd556f19ddc4d62b1faf8b79d68ac5561b3277e15c2f28fb3b2820602052604090205460ff16801561284c575073ffffffffffffffffffffffffffffffffffffffff821615155b15612883576040517ff50a3b5200000000000000000000000000000000000000000000000000000000815260040160405180910390fd5b73ffffffffffffffffffffffffffffffffffffffff821660009081527f1b6393e878bd556f19ddc4d62b1faf8b79d68ac5561b3277e15c2f28fb3b2820602052604090205460ff1615610e3f576040517ff50a3b5200000000000000000000000000000000000000000000000000000000815260040160405180910390fd5b60008281526020818152604080832073ffffffffffffffffffffffffffffffffffffffff8516845290915290205460ff166119765761294081613032565b61294b836020613051565b60405160200161295c929190613a83565b604080517fffffffffffffffffffffffffffffffffffffffffffffffffffffffffffffffe08184030181529082905262461bcd60e51b8252610ae6916004016134a8565b6129cc7f0000000000000000000000000000000000000000000000000000000000000000853085612593565b6129d6838261215b565b8273ffffffffffffffffffffffffffffffffffffffff168473ffffffffffffffffffffffffffffffffffffffff167fdcbc1c05240f31ff3ad067ef1ee35ce4997762752e3a095284754544f4c709d78484604051610e31929190918252602082015260400190565b6000612a4960065490565b9050600081118015612a625750670de0b6b3a764000081105b15611336576040517fb4b836aa00000000000000000000000000000000000000000000000000000000815260040160405180910390fd5b60606000612aa68361327a565b604080516020808252818301909252919250600091906020820181803683375050509182525060208101929092525090565b6000612b3a826040518060400160405280602081526020017f5361666545524332303a206c6f772d6c6576656c2063616c6c206661696c65648152508573ffffffffffffffffffffffffffffffffffffffff166132bb9092919063ffffffff16565b9050805160001480612b5b575080806020019051810190612b5b9190613b04565b610e3f5760405162461bcd60e51b815260206004820152602a60248201527f5361666545524332303a204552433230206f7065726174696f6e20646964206e60448201527f6f742073756363656564000000000000000000000000000000000000000000006064820152608401610ae6565b8273ffffffffffffffffffffffffffffffffffffffff168573ffffffffffffffffffffffffffffffffffffffff1614612c0b57612c0b83868361197a565b612c158382611fbd565b612c407f00000000000000000000000000000000000000000000000000000000000000008584612242565b8273ffffffffffffffffffffffffffffffffffffffff168473ffffffffffffffffffffffffffffffffffffffff168673ffffffffffffffffffffffffffffffffffffffff167ffbde797d201c681b91056529119e0b02407c7bb96a4a2c75c01fc9667232c8db8585604051612cbf929190918252602082015260400190565b60405180910390a45050505050565b6000807f7fffffffffffffffffffffffffffffff5d576e7357a4501ddfe92f46681b20a0831115612d055750600090506003612db4565b6040805160008082526020820180845289905260ff881692820192909252606081018690526080810185905260019060a0016020604051602081039080840390855afa158015612d59573d6000803e3d6000fd5b50506040517fffffffffffffffffffffffffffffffffffffffffffffffffffffffffffffffe0015191505073ffffffffffffffffffffffffffffffffffffffff8116612dad57600060019250925050612db4565b9150600090505b94509492505050565b6000816004811115612dd157612dd1613a54565b03612dd95750565b6001816004811115612ded57612ded613a54565b03612e3a5760405162461bcd60e51b815260206004820152601860248201527f45434453413a20696e76616c6964207369676e617475726500000000000000006044820152606401610ae6565b6002816004811115612e4e57612e4e613a54565b03612e9b5760405162461bcd60e51b815260206004820152601f60248201527f45434453413a20696e76616c6964207369676e6174757265206c656e677468006044820152606401610ae6565b6003816004811115612eaf57612eaf613a54565b036113365760405162461bcd60e51b815260206004820152602260248201527f45434453413a20696e76616c6964207369676e6174757265202773272076616c60448201527f75650000000000000000000000000000000000000000000000000000000000006064820152608401610ae6565b600080807fffffffffffffffffffffffffffffffffffffffffffffffffffffffffffffffff85870985870292508281108382030391505080600003612f7a57838281612f7057612f706138bb565b04925050506109fd565b808411612fc95760405162461bcd60e51b815260206004820152601560248201527f4d6174683a206d756c446976206f766572666c6f7700000000000000000000006044820152606401610ae6565b60008486880960026001871981018816978890046003810283188082028403028082028403028082028403028082028403028082028403029081029092039091026000889003889004909101858311909403939093029303949094049190911702949350505050565b60606108b673ffffffffffffffffffffffffffffffffffffffff831660145b606060006130608360026138a4565b61306b906002613862565b67ffffffffffffffff81111561308357613083613875565b6040519080825280601f01601f1916602001820160405280156130ad576020820181803683370190505b5090507f3000000000000000000000000000000000000000000000000000000000000000816000815181106130e4576130e4613b21565b60200101907effffffffffffffffffffffffffffffffffffffffffffffffffffffffffffff1916908160001a9053507f78000000000000000000000000000000000000000000000000000000000000008160018151811061314757613147613b21565b60200101907effffffffffffffffffffffffffffffffffffffffffffffffffffffffffffff1916908160001a90535060006131838460026138a4565b61318e906001613862565b90505b600181111561322b577f303132333435363738396162636465660000000000000000000000000000000085600f16601081106131cf576131cf613b21565b1a60f81b8282815181106131e5576131e5613b21565b60200101907effffffffffffffffffffffffffffffffffffffffffffffffffffffffffffff1916908160001a90535060049490941c9361322481613b50565b9050613191565b5083156109fd5760405162461bcd60e51b815260206004820181905260248201527f537472696e67733a20686578206c656e67746820696e73756666696369656e746044820152606401610ae6565b600060ff8216601f8111156108b6576040517fb3512b0c00000000000000000000000000000000000000000000000000000000815260040160405180910390fd5b60606110468484600085856000808673ffffffffffffffffffffffffffffffffffffffff1685876040516132ef9190613b85565b60006040518083038185875af1925050503d806000811461332c576040519150601f19603f3d011682016040523d82523d6000602084013e613331565b606091505b50915091506133428783838761334d565b979650505050505050565b606083156133c95782516000036133c25773ffffffffffffffffffffffffffffffffffffffff85163b6133c25760405162461bcd60e51b815260206004820152601d60248201527f416464726573733a2063616c6c20746f206e6f6e2d636f6e74726163740000006044820152606401610ae6565b5081611046565b61104683838151156133de5781518083602001fd5b8060405162461bcd60e51b8152600401610ae691906134a8565b60006020828403121561340a57600080fd5b81357fffffffff00000000000000000000000000000000000000000000000000000000811681146109fd57600080fd5b60005b8381101561345557818101518382015260200161343d565b50506000910152565b6000815180845261347681602086016020860161343a565b601f017fffffffffffffffffffffffffffffffffffffffffffffffffffffffffffffffe0169290920160200192915050565b6020815260006109fd602083018461345e565b6000602082840312156134cd57600080fd5b5035919050565b803573ffffffffffffffffffffffffffffffffffffffff811681146134f857600080fd5b919050565b6000806040838503121561351057600080fd5b613519836134d4565b946020939093013593505050565b60008060006060848603121561353c57600080fd5b613545846134d4565b9250613553602085016134d4565b9150604084013590509250925092565b6000806040838503121561357657600080fd5b82359150613586602084016134d4565b90509250929050565b6000602082840312156135a157600080fd5b6109fd826134d4565b7fff00000000000000000000000000000000000000000000000000000000000000881681526000602060e0818401526135e660e084018a61345e565b83810360408501526135f8818a61345e565b6060850189905273ffffffffffffffffffffffffffffffffffffffff8816608086015260a0850187905284810360c0860152855180825283870192509083019060005b818110156136575783518352928401929184019160010161363b565b50909c9b505050505050505050505050565b6000806040838503121561367c57600080fd5b613685836134d4565b9150613586602084016134d4565b6000806000606084860312156136a857600080fd5b6136b1846134d4565b9250602084013591506136c6604085016134d4565b90509250925092565b6000806000606084860312156136e457600080fd5b833592506136f4602085016134d4565b91506136c6604085016134d4565b801515811461133657600080fd5b6000806040838503121561372357600080fd5b61372c836134d4565b9150602083013561373c81613702565b809150509250929050565b600080600080600080600060e0888a03121561376257600080fd5b61376b886134d4565b9650613779602089016134d4565b95506040880135945060608801359350608088013560ff8116811461379d57600080fd5b9699959850939692959460a0840135945060c09093013592915050565b6000602082840312156137cc57600080fd5b5051919050565b7f4e487b7100000000000000000000000000000000000000000000000000000000600052601160045260246000fd5b818103818111156108b6576108b66137d3565b600181811c9082168061382957607f821691505b602082108103612620577f4e487b7100000000000000000000000000000000000000000000000000000000600052602260045260246000fd5b808201808211156108b6576108b66137d3565b7f4e487b7100000000000000000000000000000000000000000000000000000000600052604160045260246000fd5b80820281158282048414176108b6576108b66137d3565b7f4e487b7100000000000000000000000000000000000000000000000000000000600052601260045260246000fd5b600082613920577f4e487b7100000000000000000000000000000000000000000000000000000000600052601260045260246000fd5b500490565b600181815b8085111561397e57817fffffffffffffffffffffffffffffffffffffffffffffffffffffffffffffffff04821115613964576139646137d3565b8085161561397157918102915b93841c939080029061392a565b509250929050565b600082613995575060016108b6565b816139a2575060006108b6565b81600181146139b857600281146139c2576139de565b60019150506108b6565b60ff8411156139d3576139d36137d3565b50506001821b6108b6565b5060208310610133831016604e8410600b8410161715613a01575081810a6108b6565b613a0b8383613925565b807fffffffffffffffffffffffffffffffffffffffffffffffffffffffffffffffff04821115613a3d57613a3d6137d3565b029392505050565b60006109fd60ff841683613986565b7f4e487b7100000000000000000000000000000000000000000000000000000000600052602160045260246000fd5b7f416363657373436f6e74726f6c3a206163636f756e7420000000000000000000815260008351613abb81601785016020880161343a565b7f206973206d697373696e6720726f6c65200000000000000000000000000000006017918401918201528351613af881602884016020880161343a565b01602801949350505050565b600060208284031215613b1657600080fd5b81516109fd81613702565b7f4e487b7100000000000000000000000000000000000000000000000000000000600052603260045260246000fd5b600081613b5f57613b5f6137d3565b507fffffffffffffffffffffffffffffffffffffffffffffffffffffffffffffffff0190565b60008251613b9781846020870161343a565b919091019291505056fea26469706673582212207ab287f15a5cebf34f961192e841990419b69ed0a85da4e6827b18f50ffd53b664736f6c63430008130033","linkReferences":{}},"methodIdentifiers":{"DEFAULT_ADMIN_ROLE()":"a217fddf","DOMAIN_SEPARATOR()":"3644e515","acceptAdmin()":"0e18b681","addToBlacklist(address,bool)":"f298f42c","allowance(address,address)":"dd62ed3e","approve(address,uint256)":"095ea7b3","asset()":"38d52e0f","balanceOf(address)":"70a08231","convertToAssets(uint256)":"07a2d13a","convertToShares(uint256)":"c6e6f592","decimals()":"313ce567","decreaseAllowance(address,uint256)":"a457c2d7","deposit(uint256,address)":"6e553f65","eip712Domain()":"84b0196e","getRoleAdmin(bytes32)":"248a9ca3","getUnvestedAmount()":"e7c2a608","grantRole(bytes32,address)":"2f2ff15d","hasRole(bytes32,address)":"91d14854","increaseAllowance(address,uint256)":"39509351","lastDistributionTimestamp()":"20950933","maxDeposit(address)":"402d267d","maxMint(address)":"c63d75b6","maxRedeem(address)":"d905777e","maxWithdraw(address)":"ce96cb77","mint(uint256,address)":"94bf804d","name()":"06fdde03","nonces(address)":"7ecebe00","owner()":"8da5cb5b","permit(address,address,uint256,uint256,uint8,bytes32,bytes32)":"d505accf","previewDeposit(uint256)":"ef8b30f7","previewMint(uint256)":"b3d7f6b9","previewRedeem(uint256)":"4cdad506","previewWithdraw(uint256)":"0a28a477","redeem(uint256,address,address)":"ba087652","redistributeLockedAmount(address,address)":"a0776b82","removeFromBlacklist(address,bool)":"c336a084","renounceRole(bytes32,address)":"36568abe","rescueTokens(address,uint256,address)":"b37fd190","revokeRole(bytes32,address)":"d547741f","supportsInterface(bytes4)":"01ffc9a7","symbol()":"95d89b41","totalAssets()":"01e1d114","totalSupply()":"18160ddd","transfer(address,uint256)":"a9059cbb","transferAdmin(address)":"75829def","transferFrom(address,address,uint256)":"23b872dd","transferInRewards(uint256)":"c80ef110","vestingAmount()":"00728f76","withdraw(uint256,address,address)":"b460af94"},"id":1}