{"abi":[{"type":"constructor","inputs":[{"name":"stakingVault","type":"address","internalType":"address"},{"name":"usde","type":"address","internalType":"address"}],"stateMutability":"nonpayable"},{"type":"function","name":"withdraw","inputs":[{"name":"to","type":"address","internalType":"address"},{"name":"amount","type":"uint256","internalType":"uint256"}],"outputs":[],"stateMutability":"nonpayable"},{"type":"error","name":"OnlyStakingVault","inputs":[]}],"bytecode":{"object":"0x60c060405234801561001057600080fd5b506040516102cf3803806102cf83398101604081905261002f91610062565b6001600160a01b039182166080521660a052610095565b80516001600160a01b038116811461005d57600080fd5b919050565b6000806040838503121561007557600080fd5b61007e83610046565b915061008c60208401610046565b90509250929050565b60805160a0516102166100b9600039600061010001526000605d01526102166000f3fe608060405234801561001057600080fd5b506004361061002b5760003560e01c8063f3fef3a314610030575b600080fd5b61004361003e366004610172565b610045565b005b3373ffffffffffffffffffffffffffffffffffffffff7f000000000000000000000000000000000000000000000000000000000000000016146100b4576040517f17dd114500000000000000000000000000000000000000000000000000000000815260040160405180910390fd5b6040517fa9059cbb00000000000000000000000000000000000000000000000000000000815273ffffffffffffffffffffffffffffffffffffffff8381166004830152602482018390527f0000000000000000000000000000000000000000000000000000000000000000169063a9059cbb906044016020604051808303816000875af1158015610149573d6000803e3d6000fd5b505050506040513d601f19601f8201168201806040525081019061016d91906101b7565b505050565b6000806040838503121561018557600080fd5b823573ffffffffffffffffffffffffffffffffffffffff811681146101a957600080fd5b946020939093013593505050565b6000602082840312156101c957600080fd5b815180151581146101d957600080fd5b939250505056fea26469706673582212209602d9dd14976758f4e9138706ea9b8e7bb322bf8a176e0b6e521732858faeff64736f6c63430008130033","linkReferences":{}},"methodIdentifiers":{"withdraw(address,uint256)":"f3fef3a3"},"id":4}