{"abi":[{"type":"constructor","inputs":[{"name":"_asset","type":"address","internalType":"contract IERC20"},{"name":"initialRewarder","type":"address","internalType":"address"},{"name":"owner","type":"address","internalType":"address"}],"stateMutability":"nonpayable"},{"type":"function","name":"DEFAULT_ADMIN_ROLE","inputs":[],"outputs":[{"name":"","type":"bytes32","internalType":"bytes32"}],"stateMutability":"view"},{"type":"function","name":"DOMAIN_SEPARATOR","inputs":[],"outputs":[{"name":"","type":"bytes32","internalType":"bytes32"}],"stateMutability":"view"},{"type":"function","name":"MAX_COOLDOWN_DURATION","inputs":[],"outputs":[{"name":"","type":"uint24","internalType":"uint24"}],"stateMutability":"view"},{"type":"function","name":"acceptAdmin","inputs":[],"outputs":[],"stateMutability":"nonpayable"},{"type":"function","name":"addToBlacklist","inputs":[{"name":"target","type":"address","internalType":"address"},{"name":"isFullBlacklisting","type":"bool","internalType":"bool"}],"outputs":[],"stateMutability":"nonpayable"},{"type":"function","name":"allowance","inputs":[{"name":"owner","type":"address","internalType":"address"},{"name":"spender","type":"address","internalType":"address"}],"outputs":[{"name":"","type":"uint256","internalType":"uint256"}],"stateMutability":"view"},{"type":"function","name":"approve","inputs":[{"name":"spender","type":"address","internalType":"address"},{"name":"amount","type":"uint256","internalType":"uint256"}],"outputs":[{"name":"","type":"bool","internalType":"bool"}],"stateMutability":"nonpayable"},{"type":"function","name":"asset","inputs":[],"outputs":[{"name":"","type":"address","internalType":"address"}],"stateMutability":"view"},{"type":"function","name":"balanceOf","inputs":[{"name":"account","type":"address","internalType":"address"}],"outputs":[{"name":"","type":"uint256","internalType":"uint256"}],"stateMutability":"view"},{"type":"function","name":"convertToAssets","inputs":[{"name":"shares","type":"uint256","internalType":"uint256"}],"outputs":[{"name":"","type":"uint256","internalType":"uint256"}],"stateMutability":"view"},{"type":"function","name":"convertToShares","inputs":[{"name":"assets","type":"uint256","internalType":"uint256"}],"outputs":[{"name":"","type":"uint256","internalType":"uint256"}],"stateMutability":"view"},{"type":"function","name":"cooldownAssets","inputs":[{"name":"assets","type":"uint256","internalType":"uint256"},{"name":"owner","type":"address","internalType":"address"}],"outputs":[{"name":"","type":"uint256","internalType":"uint256"}],"stateMutability":"nonpayable"},{"type":"function","name":"cooldownDuration","inputs":[],"outputs":[{"name":"","type":"uint24","internalType":"uint24"}],"stateMutability":"view"},{"type":"function","name":"cooldownShares","inputs":[{"name":"shares","type":"uint256","internalType":"uint256"},{"name":"owner","type":"address","internalType":"address"}],"outputs":[{"name":"","type":"uint256","internalType":"uint256"}],"stateMutability":"nonpayable"},{"type":"function","name":"cooldowns","inputs":[{"name":"","type":"address","internalType":"address"}],"outputs":[{"name":"cooldownEnd","type":"uint104","internalType":"uint104"},{"name":"underlyingAmount","type":"uint256","internalType":"uint256"}],"stateMutability":"view"},{"type":"function","name":"decimals","inputs":[],"outputs":[{"name":"","type":"uint8","internalType":"uint8"}],"stateMutability":"pure"},{"type":"function","name":"decreaseAllowance","inputs":[{"name":"spender","type":"address","internalType":"address"},{"name":"subtractedValue","type":"uint256","internalType":"uint256"}],"outputs":[{"name":"","type":"bool","internalType":"bool"}],"stateMutability":"nonpayable"},{"type":"function","name":"deposit","inputs":[{"name":"assets","type":"uint256","internalType":"uint256"},{"name":"receiver","type":"address","internalType":"address"}],"outputs":[{"name":"","type":"uint256","internalType":"uint256"}],"stateMutability":"nonpayable"},{"type":"function","name":"eip712Domain","inputs":[],"outputs":[{"name":"fields","type":"bytes1","internalType":"bytes1"},{"name":"name","type":"string","internalType":"string"},{"name":"version","type":"string","internalType":"string"},{"name":"chainId","type":"uint256","internalType":"uint256"},{"name":"verifyingContract","type":"address","internalType":"address"},{"name":"salt","type":"bytes32","internalType":"bytes32"},{"name":"extensions","type":"uint256[]","internalType":"uint256[]"}],"stateMutability":"view"},{"type":"function","name":"getRoleAdmin","inputs":[{"name":"role","type":"bytes32","internalType":"bytes32"}],"outputs":[{"name":"","type":"bytes32","internalType":"bytes32"}],"stateMutability":"view"},{"type":"function","name":"getUnvestedAmount","inputs":[],"outputs":[{"name":"","type":"uint256","internalType":"uint256"}],"stateMutability":"view"},{"type":"function","name":"grantRole","inputs":[{"name":"role","type":"bytes32","internalType":"bytes32"},{"name":"account","type":"address","internalType":"address"}],"outputs":[],"stateMutability":"nonpayable"},{"type":"function","name":"hasRole","inputs":[{"name":"role","type":"bytes32","internalType":"bytes32"},{"name":"account","type":"address","internalType":"address"}],"outputs":[{"name":"","type":"bool","internalType":"bool"}],"stateMutability":"view"},{"type":"function","name":"increaseAllowance","inputs":[{"name":"spender","type":"address","internalType":"address"},{"name":"addedValue","type":"uint256","internalType":"uint256"}],"outputs":[{"name":"","type":"bool","internalType":"bool"}],"stateMutability":"nonpayable"},{"type":"function","name":"lastDistributionTimestamp","inputs":[],"outputs":[{"name":"","type":"uint256","internalType":"uint256"}],"stateMutability":"view"},{"type":"function","name":"maxDeposit","inputs":[{"name":"","type":"address","internalType":"address"}],"outputs":[{"name":"","type":"uint256","internalType":"uint256"}],"stateMutability":"view"},{"type":"function","name":"maxMint","inputs":[{"name":"","type":"address","internalType":"address"}],"outputs":[{"name":"","type":"uint256","internalType":"uint256"}],"stateMutability":"view"},{"type":"function","name":"maxRedeem","inputs":[{"name":"owner","type":"address","internalType":"address"}],"outputs":[{"name":"","type":"uint256","internalType":"uint256"}],"stateMutability":"view"},{"type":"function","name":"maxWithdraw","inputs":[{"name":"owner","type":"address","internalType":"address"}],"outputs":[{"name":"","type":"uint256","internalType":"uint256"}],"stateMutability":"view"},{"type":"function","name":"mint","inputs":[{"name":"shares","type":"uint256","internalType":"uint256"},{"name":"receiver","type":"address","internalType":"address"}],"outputs":[{"name":"","type":"uint256","internalType":"uint256"}],"stateMutability":"nonpayable"},{"type":"function","name":"name","inputs":[],"outputs":[{"name":"","type":"string","internalType":"string"}],"stateMutability":"view"},{"type":"function","name":"nonces","inputs":[{"name":"owner","type":"address","internalType":"address"}],"outputs":[{"name":"","type":"uint256","internalType":"uint256"}],"stateMutability":"view"},{"type":"function","name":"owner","inputs":[],"outputs":[{"name":"","type":"address","internalType":"address"}],"stateMutability":"view"},{"type":"function","name":"permit","inputs":[{"name":"owner","type":"address","internalType":"address"},{"name":"spender","type":"address","internalType":"address"},{"name":"value","type":"uint256","internalType":"uint256"},{"name":"deadline","type":"uint256","internalType":"uint256"},{"name":"v","type":"uint8","internalType":"uint8"},{"name":"r","type":"bytes32","internalType":"bytes32"},{"name":"s","type":"bytes32","internalType":"bytes32"}],"outputs":[],"stateMutability":"nonpayable"},{"type":"function","name":"previewDeposit","inputs":[{"name":"assets","type":"uint256","internalType":"uint256"}],"outputs":[{"name":"","type":"uint256","internalType":"uint256"}],"stateMutability":"view"},{"type":"function","name":"previewMint","inputs":[{"name":"shares","type":"uint256","internalType":"uint256"}],"outputs":[{"name":"","type":"uint256","internalType":"uint256"}],"stateMutability":"view"},{"type":"function","name":"previewRedeem","inputs":[{"name":"shares","type":"uint256","internalType":"uint256"}],"outputs":[{"name":"","type":"uint256","internalType":"uint256"}],"stateMutability":"view"},{"type":"function","name":"previewWithdraw","inputs":[{"name":"assets","type":"uint256","internalType":"uint256"}],"outputs":[{"name":"","type":"uint256","internalType":"uint256"}],"stateMutability":"view"},{"type":"function","name":"redeem","inputs":[{"name":"shares","type":"uint256","internalType":"uint256"},{"name":"receiver","type":"address","internalType":"address"},{"name":"owner","type":"address","internalType":"address"}],"outputs":[{"name":"","type":"uint256","internalType":"uint256"}],"stateMutability":"nonpayable"},{"type":"function","name":"redistributeLockedAmount","inputs":[{"name":"from","type":"address","internalType":"address"},{"name":"to","type":"address","internalType":"address"}],"outputs":[],"stateMutability":"nonpayable"},{"type":"function","name":"removeFromBlacklist","inputs":[{"name":"target","type":"address","internalType":"address"},{"name":"isFullBlacklisting","type":"bool","internalType":"bool"}],"outputs":[],"stateMutability":"nonpayable"},{"type":"function","name":"renounceRole","inputs":[{"name":"","type":"bytes32","internalType":"bytes32"},{"name":"","type":"address","internalType":"address"}],"outputs":[],"stateMutability":"nonpayable"},{"type":"function","name":"rescueTokens","inputs":[{"name":"token","type":"address","internalType":"address"},{"name":"amount","type":"uint256","internalType":"uint256"},{"name":"to","type":"address","internalType":"address"}],"outputs":[],"stateMutability":"nonpayable"},{"type":"function","name":"revokeRole","inputs":[{"name":"role","type":"bytes32","internalType":"bytes32"},{"name":"account","type":"address","internalType":"address"}],"outputs":[],"stateMutability":"nonpayable"},{"type":"function","name":"setCooldownDuration","inputs":[{"name":"duration","type":"uint24","internalType":"uint24"}],"outputs":[],"stateMutability":"nonpayable"},{"type":"function","name":"silo","inputs":[],"outputs":[{"name":"","type":"address","internalType":"contract USDeSilo"}],"stateMutability":"view"},{"type":"function","name":"supportsInterface","inputs":[{"name":"interfaceId","type":"bytes4","internalType":"bytes4"}],"outputs":[{"name":"","type":"bool","internalType":"bool"}],"stateMutability":"view"},{"type":"function","name":"symbol","inputs":[],"outputs":[{"name":"","type":"string","internalType":"string"}],"stateMutability":"view"},{"type":"function","name":"totalAssets","inputs":[],"outputs":[{"name":"","type":"uint256","internalType":"uint256"}],"stateMutability":"view"},{"type":"function","name":"totalSupply","inputs":[],"outputs":[{"name":"","type":"uint256","internalType":"uint256"}],"stateMutability":"view"},{"type":"function","name":"transfer","inputs":[{"name":"to","type":"address","internalType":"address"},{"name":"amount","type":"uint256","internalType":"uint256"}],"outputs":[{"name":"","type":"bool","internalType":"bool"}],"stateMutability":"nonpayable"},{"type":"function","name":"transferAdmin","inputs":[{"name":"newAdmin","type":"address","internalType":"address"}],"outputs":[],"stateMutability":"nonpayable"},{"type":"function","name":"transferFrom","inputs":[{"name":"from","type":"address","internalType":"address"},{"name":"to","type":"address","internalType":"address"},{"name":"amount","type":"uint256","internalType":"uint256"}],"outputs":[{"name":"","type":"bool","internalType":"bool"}],"stateMutability":"nonpayable"},{"type":"function","name":"transferInRewards","inputs":[{"name":"amount","type":"uint256","internalType":"uint256"}],"outputs":[],"stateMutability":"nonpayable"},{"type":"function","name":"unstake","inputs":[{"name":"receiver","type":"address","internalType":"address"}],"outputs":[],"stateMutability":"nonpayable"},{"type":"function","name":"vestingAmount","inputs":[],"outputs":[{"name":"","type":"uint256","internalType":"uint256"}],"stateMutability":"view"},{"type":"function","name":"withdraw","inputs":[{"name":"assets","type":"uint256","internalType":"uint256"},{"name":"receiver","type":"address","internalType":"address"},{"name":"owner","type":"address","internalType":"address"}],"outputs":[{"name":"","type":"uint256","internalType":"uint256"}],"stateMutability":"nonpayable"},{"type":"event","name":"AdminTransferRequested","inputs":[{"name":"oldAdmin","type":"address","indexed":true,"internalType":"address"},{"name":"newAdmin","type":"address","indexed":true,"internalType":"address"}],"anonymous":false},{"type":"event","name":"AdminTransferred","inputs":[{"name":"oldAdmin","type":"address","indexed":true,"internalType":"address"},{"name":"newAdmin","type":"address","indexed":true,"internalType":"address"}],"anonymous":false},{"type":"event","name":"Approval","inputs":[{"name":"owner","type":"address","indexed":true,"internalType":"address"},{"name":"spender","type":"address","indexed":true,"internalType":"address"},{"name":"value","type":"uint256","indexed":false,"internalType":"uint256"}],"anonymous":false},{"type":"event","name":"CooldownDurationUpdated","inputs":[{"name":"previousDuration","type":"uint24","indexed":false,"internalType":"uint24"},{"name":"newDuration","type":"uint24","indexed":false,"internalType":"uint24"}],"anonymous":false},{"type":"event","name":"Deposit","inputs":[{"name":"sender","type":"address","indexed":true,"internalType":"address"},{"name":"owner","type":"address","indexed":true,"internalType":"address"},{"name":"assets","type":"uint256","indexed":false,"internalType":"uint256"},{"name":"shares","type":"uint256","indexed":false,"internalType":"uint256"}],"anonymous":false},{"type":"event","name":"EIP712DomainChanged","inputs":[],"anonymous":false},{"type":"event","name":"LockedAmountRedistributed","inputs":[{"name":"from","type":"address","indexed":true,"internalType":"address"},{"name":"to","type":"address","indexed":true,"internalType":"address"},{"name":"amount","type":"uint256","indexed":false,"internalType":"uint256"}],"anonymous":false},{"type":"event","name":"RewardsReceived","inputs":[{"name":"amount","type":"uint256","indexed":true,"internalType":"uint256"},{"name":"newVestingUSDeAmount","type":"uint256","indexed":false,"internalType":"uint256"}],"anonymous":false},{"type":"event","name":"RoleAdminChanged","inputs":[{"name":"role","type":"bytes32","indexed":true,"internalType":"bytes32"},{"name":"previousAdminRole","type":"bytes32","indexed":true,"internalType":"bytes32"},{"name":"newAdminRole","type":"bytes32","indexed":true,"internalType":"bytes32"}],"anonymous":false},{"type":"event","name":"RoleGranted","inputs":[{"name":"role","type":"bytes32","indexed":true,"internalType":"bytes32"},{"name":"account","type":"address","indexed":true,"internalType":"address"},{"name":"sender","type":"address","indexed":true,"internalType":"address"}],"anonymous":false},{"type":"event","name":"RoleRevoked","inputs":[{"name":"role","type":"bytes32","indexed":true,"internalType":"bytes32"},{"name":"account","type":"address","indexed":true,"internalType":"address"},{"name":"sender","type":"address","indexed":true,"internalType":"address"}],"anonymous":false},{"type":"event","name":"SiloUpdated","inputs":[{"name":"previousSilo","type":"address","indexed":false,"internalType":"address"},{"name":"newSilo","type":"address","indexed":false,"internalType":"address"}],"anonymous":false},{"type":"event","name":"Transfer","inputs":[{"name":"from","type":"address","indexed":true,"internalType":"address"},{"name":"to","type":"address","indexed":true,"internalType":"address"},{"name":"value","type":"uint256","indexed":false,"internalType":"uint256"}],"anonymous":false},{"type":"event","name":"Withdraw","inputs":[{"name":"sender","type":"address","indexed":true,"internalType":"address"},{"name":"receiver","type":"address","indexed":true,"internalType":"address"},{"name":"owner","type":"address","indexed":true,"internalType":"address"},{"name":"assets","type":"uint256","indexed":false,"internalType":"uint256"},{"name":"shares","type":"uint256","indexed":false,"internalType":"uint256"}],"anonymous":false},{"type":"error","name":"CantBlacklistOwner","inputs":[]},{"type":"error","name":"ExcessiveRedeemAmount","inputs":[]},{"type":"error","name":"ExcessiveWithdrawAmount","inputs":[]},{"type":"error","name":"InvalidAdminChange","inputs":[]},{"type":"error","name":"InvalidAmount","inputs":[]},{"type":"error","name":"InvalidCooldown","inputs":[]},{"type":"error","name":"InvalidShortString","inputs":[]},{"type":"error","name":"InvalidToken","inputs":[]},{"type":"error","name":"InvalidZeroAddress","inputs":[]},{"type":"error","name":"MinSharesViolation","inputs":[]},{"type":"error","name":"NotPendingAdmin","inputs":[]},{"type":"error","name":"OperationNotAllowed","inputs":[]},{"type":"error","name":"SlippageExceeded","inputs":[]},{"type":"error","name":"StillVesting","inputs":[]},{"type":"error","name":"StringTooLong","inputs":[{"name":"str","type":"string","internalType":"string"}]}],"bytecode":{"object":"0x6101a06040526010805462ffffff60a01b19166176a760a81b1790553480156200002857600080fd5b5060405162004fb938038062004fb98339810160408190526200004b9162000648565b828282826040518060400160405280600681526020016573745553446560d01b81525080604051806040016040528060018152602001603160f81b8152506040518060400160405280600b81526020016a5374616b6564205553446560a81b8152506040518060400160405280600681526020016573745553446560d01b81525060016003819055508160079081620000e5919062000741565b506008620000f4828262000741565b50620001069150839050600962000305565b610120526200011781600a62000305565b61014052815160208084019190912060e052815190820120610100524660a052620001a560e05161010051604080517f8b73c3c69bb8fe3d512ecc4cf759cc79239f7b179b0ffacaa9a75d522b39400f60208201529081019290925260608201524660808201523060a082015260009060c00160405160208183030381529060405280519060200120905090565b60805250503060c05250600080620001bd836200033e565b9150915081620001cf576012620001d1565b805b60ff166101805250506001600160a01b039081166101605281161580620001ff57506001600160a01b038216155b806200021257506001600160a01b038316155b15620002315760405163f6b2911f60e01b815260040160405180910390fd5b6200025d7fbeec13769b5f410b0584f69811bfd923818456d5edcf426b0e31cf90eed7a3f68362000423565b6200026a60008262000423565b50505030836040516200027d9062000621565b6001600160a01b03928316815291166020820152604001604051809103906000f080158015620002b1573d6000803e3d6000fd5b5060108054600165ffffff00000160a01b031981166001600160a01b0393909316928317600160a01b6001600160a01b03199092169093170462ffffff16600160b81b0291909117905550620008c5915050565b600060208351101562000325576200031d83620004b5565b905062000338565b8162000332848262000741565b5060ff90505b92915050565b60408051600481526024810182526020810180516001600160e01b031663313ce56760e01b17905290516000918291829182916001600160a01b03871691620003879162000833565b600060405180830381855afa9150503d8060008114620003c4576040519150601f19603f3d011682016040523d82523d6000602084013e620003c9565b606091505b5091509150818015620003de57506020815110155b156200041657600081806020019051810190620003fc919062000851565b905060ff811162000414576001969095509350505050565b505b5060009485945092505050565b81620004a5576001546040516001600160a01b038084169216907ff8ccb027dfcd135e000e9d45e6cc2d662578a8825d4c45b5e32e0adf67e79ec690600090a36001546200047d906000906001600160a01b031662000501565b600180546001600160a01b0383166001600160a01b0319918216179091556002805490911690555b620004b1828262000581565b5050565b600080829050601f81511115620004ec578260405163305a27a960e01b8152600401620004e391906200086b565b60405180910390fd5b8051620004f982620008a0565b179392505050565b6000828152602081815260408083206001600160a01b038516845290915290205460ff1615620004b1576000828152602081815260408083206001600160a01b0385168085529252808320805460ff1916905551339285917ff6391f5c32d9c69d2a47ea670b442974b53935d1edc7fd64eb21e047a839171b9190a45050565b6000828152602081815260408083206001600160a01b038516845290915290205460ff16620004b1576000828152602081815260408083206001600160a01b03851684529091529020805460ff19166001179055620005dd3390565b6001600160a01b0316816001600160a01b0316837f2f8788117e7eff1d82e926ec794901d17c78024a50270940304540a733656f0d60405160405180910390a45050565b6102cf8062004cea83390190565b6001600160a01b03811681146200064557600080fd5b50565b6000806000606084860312156200065e57600080fd5b83516200066b816200062f565b60208501519093506200067e816200062f565b604085015190925062000691816200062f565b809150509250925092565b634e487b7160e01b600052604160045260246000fd5b600181811c90821680620006c757607f821691505b602082108103620006e857634e487b7160e01b600052602260045260246000fd5b50919050565b601f8211156200073c57600081815260208120601f850160051c81016020861015620007175750805b601f850160051c820191505b81811015620007385782815560010162000723565b5050505b505050565b81516001600160401b038111156200075d576200075d6200069c565b62000775816200076e8454620006b2565b84620006ee565b602080601f831160018114620007ad5760008415620007945750858301515b600019600386901b1c1916600185901b17855562000738565b600085815260208120601f198616915b82811015620007de57888601518255948401946001909101908401620007bd565b5085821015620007fd5787850151600019600388901b60f8161c191681555b5050505050600190811b01905550565b60005b838110156200082a57818101518382015260200162000810565b50506000910152565b60008251620008478184602087016200080d565b9190910192915050565b6000602082840312156200086457600080fd5b5051919050565b60208152600082518060208401526200088c8160408501602087016200080d565b601f01601f19169190910160400192915050565b80516020808301519190811015620006e85760001960209190910360031b1b16919050565b60805160a05160c05160e051610100516101205161014051610160516101805161439462000956600039600050506000818161056f015281816108ec01528181611224015281816115b201528181613110015261329001526000610dc501526000610d9a015260006123d8015260006123b00152600061230b015260006123350152600061235f01526143946000f3fe608060405234801561001057600080fd5b50600436106103825760003560e01c80638da5cb5b116101de578063c63d75b61161010f578063d547741f116100ad578063eb3beb291161007c578063eb3beb291461089a578063ef8b30f7146107b4578063f2888dbb146108ba578063f298f42c146108cd57600080fd5b8063d547741f14610826578063d905777e14610839578063dd62ed3e1461084c578063e7c2a6081461089257600080fd5b8063ce23eb3c116100e9578063ce23eb3c146107da578063ce96cb77146107ed578063d505accf14610800578063d50655b01461081357600080fd5b8063c63d75b6146105c7578063c6e6f592146107b4578063c80ef110146107c757600080fd5b8063a457c2d71161017c578063b3d7f6b911610156578063b3d7f6b914610768578063b460af941461077b578063ba0876521461078e578063c336a084146107a157600080fd5b8063a457c2d71461072f578063a9059cbb14610742578063b37fd1901461075557600080fd5b806395d89b41116101b857806395d89b41146106f9578063a0776b8214610701578063a217fddf14610714578063a2af49001461071c57600080fd5b80638da5cb5b1461068457806391d14854146106a257806394bf804d146106e657600080fd5b80632f2ff15d116102b8578063402d267d1161025657806370a082311161023057806370a082311461060d57806375829def146106435780637ecebe001461065657806384b0196e1461066957600080fd5b8063402d267d146105c75780634cdad506146104415780636e553f65146105fa57600080fd5b80633644e515116102925780633644e5151461055257806336568abe1461055a57806338d52e0f1461056d57806339509351146105b457600080fd5b80632f2ff15d14610506578063313ce56714610519578063352693151461052857600080fd5b80630a28a477116103255780631e9049cf116102ff5780631e9049cf1461048c57806320950933146104c757806323b872dd146104d0578063248a9ca3146104e357600080fd5b80630a28a477146104675780630e18b6811461047a57806318160ddd1461048457600080fd5b806301ffc9a71161036157806301ffc9a71461040957806306fdde031461042c57806307a2d13a14610441578063095ea7b31461045457600080fd5b8062728f761461038757806301320fe2146103a357806301e1d11414610401575b600080fd5b610390600d5481565b6040519081526020015b60405180910390f35b6103dc6103b1366004613b8c565b600f60205260009081526040902080546001909101546cffffffffffffffffffffffffff9091169082565b604080516cffffffffffffffffffffffffff909316835260208301919091520161039a565b6103906108e0565b61041c610417366004613ba7565b6109aa565b604051901515815260200161039a565b610434610a43565b60405161039a9190613c57565b61039061044f366004613c6a565b610ad5565b61041c610462366004613c83565b610ae2565b610390610475366004613c6a565b610afa565b610482610b07565b005b600654610390565b6010546104b39074010000000000000000000000000000000000000000900462ffffff1681565b60405162ffffff909116815260200161039a565b610390600e5481565b61041c6104de366004613cad565b610b65565b6103906104f1366004613c6a565b60009081526020819052604090206001015490565b610482610514366004613ce9565b610b8b565b6040516012815260200161039a565b6010546104b39077010000000000000000000000000000000000000000000000900462ffffff1681565b610390610bde565b610482610568366004613ce9565b610be8565b7f00000000000000000000000000000000000000000000000000000000000000005b60405173ffffffffffffffffffffffffffffffffffffffff909116815260200161039a565b61041c6105c2366004613c83565b610c1a565b6103906105d5366004613b8c565b507fffffffffffffffffffffffffffffffffffffffffffffffffffffffffffffffff90565b610390610608366004613ce9565b610c66565b61039061061b366004613b8c565b73ffffffffffffffffffffffffffffffffffffffff1660009081526004602052604090205490565b610482610651366004613b8c565b610c8f565b610390610664366004613b8c565b610d61565b610671610d8c565b60405161039a9796959493929190613d15565b60015473ffffffffffffffffffffffffffffffffffffffff1661058f565b61041c6106b0366004613ce9565b60009182526020828152604080842073ffffffffffffffffffffffffffffffffffffffff93909316845291905290205460ff1690565b6103906106f4366004613ce9565b610e31565b610434610e4b565b61048261070f366004613dd4565b610e5a565b610390600081565b61039061072a366004613ce9565b610fcb565b61041c61073d366004613c83565b611147565b61041c610750366004613c83565b611209565b610482610763366004613dfe565b611217565b610390610776366004613c6a565b6112c8565b610390610789366004613e3a565b6112d5565b61039061079c366004613e3a565b611345565b6104826107af366004613e7b565b6113ad565b6103906107c2366004613c6a565b6114bd565b6104826107d5366004613c6a565b6114ca565b6104826107e8366004613eb2565b611624565b6103906107fb366004613b8c565b611725565b61048261080e366004613ed7565b611756565b610390610821366004613ce9565b6118e1565b610482610834366004613ce9565b611a5d565b610390610847366004613b8c565b611aaa565b61039061085a366004613dd4565b73ffffffffffffffffffffffffffffffffffffffff918216600090815260056020908152604080832093909416825291909152205490565b610390611ad5565b60105461058f9073ffffffffffffffffffffffffffffffffffffffff1681565b6104826108c8366004613b8c565b611b24565b6104826108db366004613e7b565b611c3f565b60006108ea611ad5565b7f00000000000000000000000000000000000000000000000000000000000000006040517f70a0823100000000000000000000000000000000000000000000000000000000815230600482015273ffffffffffffffffffffffffffffffffffffffff91909116906370a0823190602401602060405180830381865afa158015610977573d6000803e3d6000fd5b505050506040513d601f19601f8201168201806040525081019061099b9190613f4a565b6109a59190613f92565b905090565b60007fffffffff0000000000000000000000000000000000000000000000000000000082167f7965db0b000000000000000000000000000000000000000000000000000000001480610a3d57507f01ffc9a7000000000000000000000000000000000000000000000000000000007fffffffff000000000000000000000000000000000000000000000000000000008316145b92915050565b606060078054610a5290613fa5565b80601f0160208091040260200160405190810160405280929190818152602001828054610a7e90613fa5565b8015610acb5780601f10610aa057610100808354040283529160200191610acb565b820191906000526020600020905b815481529060010190602001808311610aae57829003601f168201915b5050505050905090565b6000610a3d826000611d48565b600033610af0818585611d82565b5060019392505050565b6000610a3d826001611f01565b60025473ffffffffffffffffffffffffffffffffffffffff163314610b58576040517f058d9a1b00000000000000000000000000000000000000000000000000000000815260040160405180910390fd5b610b63600033611f31565b565b600033610b73858285611ffd565b610b7e8585856120b4565b60019150505b9392505050565b6000610b96816122e7565b8280610bce576040517f6317a0fa00000000000000000000000000000000000000000000000000000000815260040160405180910390fd5b610bd88484611f31565b50505050565b60006109a56122f1565b6040517ff50a3b5200000000000000000000000000000000000000000000000000000000815260040160405180910390fd5b33600081815260056020908152604080832073ffffffffffffffffffffffffffffffffffffffff87168452909152812054909190610af09082908690610c61908790613ff2565b611d82565b6000610c76565b60405180910390fd5b6000610c81846114bd565b9050610b8433848684612429565b6000610c9a816122e7565b3373ffffffffffffffffffffffffffffffffffffffff831603610ce9576040517f6317a0fa00000000000000000000000000000000000000000000000000000000815260040160405180910390fd5b600280547fffffffffffffffffffffffff00000000000000000000000000000000000000001673ffffffffffffffffffffffffffffffffffffffff848116918217909255600154604051919216907fefdcbba819467e00b0262c12892dda980bac68580b72178e57a162368b80876690600090a35050565b73ffffffffffffffffffffffffffffffffffffffff81166000908152600b6020526040812054610a3d565b600060608082808083610dc07f00000000000000000000000000000000000000000000000000000000000000006009612595565b610deb7f0000000000000000000000000000000000000000000000000000000000000000600a612595565b604080516000808252602082019092527f0f000000000000000000000000000000000000000000000000000000000000009b939a50919850469750309650945092509050565b600080610e3d846112c8565b9050610b8433848387612429565b606060088054610a5290613fa5565b6000610e65816122e7565b73ffffffffffffffffffffffffffffffffffffffff831660009081527f1b6393e878bd556f19ddc4d62b1faf8b79d68ac5561b3277e15c2f28fb3b2820602052604090205460ff168015610efe575073ffffffffffffffffffffffffffffffffffffffff821660009081527f1b6393e878bd556f19ddc4d62b1faf8b79d68ac5561b3277e15c2f28fb3b2820602052604090205460ff16155b15610be85773ffffffffffffffffffffffffffffffffffffffff8316600090815260046020526040902054610f338482612640565b73ffffffffffffffffffffffffffffffffffffffff831615610f5957610f5983826127de565b8273ffffffffffffffffffffffffffffffffffffffff168473ffffffffffffffffffffffffffffffffffffffff167fb8ef21f2b52f8ca740012254a6b10f17d2fd6e589f97ebf401fde0e8b921893783604051610fb891815260200190565b60405180910390a350505050565b505050565b60105460009077010000000000000000000000000000000000000000000000900462ffffff168103611029576040517ff50a3b5200000000000000000000000000000000000000000000000000000000815260040160405180910390fd5b61103282611aaa565b83111561106b576040517f6334538800000000000000000000000000000000000000000000000000000000815260040160405180910390fd5b600061107684610ad5565b6010549091506110a69077010000000000000000000000000000000000000000000000900462ffffff1642614034565b73ffffffffffffffffffffffffffffffffffffffff84166000908152600f6020526040812080547fffffffffffffffffffffffffffffffffffffff00000000000000000000000000166cffffffffffffffffffffffffff939093169290921782556001909101805483929061111c908490613ff2565b90915550610b8490503360105473ffffffffffffffffffffffffffffffffffffffff168584886128c5565b33600081815260056020908152604080832073ffffffffffffffffffffffffffffffffffffffff87168452909152812054909190838110156111f15760405162461bcd60e51b815260206004820152602560248201527f45524332303a2064656372656173656420616c6c6f77616e63652062656c6f7760448201527f207a65726f0000000000000000000000000000000000000000000000000000006064820152608401610c6d565b6111fe8286868403611d82565b506001949350505050565b600033610af08185856120b4565b6000611222816122e7565b7f000000000000000000000000000000000000000000000000000000000000000073ffffffffffffffffffffffffffffffffffffffff168473ffffffffffffffffffffffffffffffffffffffff16036112a7576040517fc1ab6dc100000000000000000000000000000000000000000000000000000000815260040160405180910390fd5b610bd873ffffffffffffffffffffffffffffffffffffffff85168385612a32565b6000610a3d826001611d48565b60105460009077010000000000000000000000000000000000000000000000900462ffffff1615611332576040517ff50a3b5200000000000000000000000000000000000000000000000000000000815260040160405180910390fd5b61133d848484612b06565b949350505050565b60105460009077010000000000000000000000000000000000000000000000900462ffffff16156113a2576040517ff50a3b5200000000000000000000000000000000000000000000000000000000815260040160405180910390fd5b61133d848484612b7a565b7ff988e4fb62b8e14f4820fed03192306ddf4d7dbfa215595ba1c6ba4b76b369ee6113d7816122e7565b826113f760015473ffffffffffffffffffffffffffffffffffffffff1690565b73ffffffffffffffffffffffffffffffffffffffff168173ffffffffffffffffffffffffffffffffffffffff160361145b576040517ffe7c574000000000000000000000000000000000000000000000000000000000815260040160405180910390fd5b600083611488577f8f7080408a06296c6347c87c115ad99669141ae35eae974c12dff8bd01680cb66114aa565b7f0a4af4bcc1942295207d9f047442ebdae6170a6e324850f758b14cf99b65c3bd5b90506114b68186612bee565b5050505050565b6000610a3d826000611f01565b6114d2612ca5565b7fbeec13769b5f410b0584f69811bfd923818456d5edcf426b0e31cf90eed7a3f66114fc816122e7565b8180600003611537576040517f2c5211c600000000000000000000000000000000000000000000000000000000815260040160405180910390fd5b6000611541611ad5565b1115611579576040517f010133de00000000000000000000000000000000000000000000000000000000815260040160405180910390fd5b6000611583611ad5565b61158d9085613ff2565b600d81905542600e5590506115da73ffffffffffffffffffffffffffffffffffffffff7f000000000000000000000000000000000000000000000000000000000000000016333087612cfe565b837f61cb44cbea389abb97c617c7d16a62235c51f27da3406d3ec3c9ac87c0d0c8268260405161160c91815260200190565b60405180910390a25050506116216001600355565b50565b600061162f816122e7565b60105462ffffff740100000000000000000000000000000000000000009091048116908316111561168c576040517fe8ebb09a00000000000000000000000000000000000000000000000000000000815260040160405180910390fd5b6010805462ffffff848116770100000000000000000000000000000000000000000000009081027fffffffffffff000000ffffffffffffffffffffffffffffffffffffffffffffff8416179384905560408051938290048316808552919094049091166020830152917f180eacdf7dbaeecaa983d93173b4285db2f2c0de0044697e1f932bbbb73dcaa6910160405180910390a1505050565b73ffffffffffffffffffffffffffffffffffffffff8116600090815260046020526040812054610a3d906000611d48565b834211156117a65760405162461bcd60e51b815260206004820152601d60248201527f45524332305065726d69743a206578706972656420646561646c696e650000006044820152606401610c6d565b60007f6e71edae12b1b97f4d1f60370fef10105fa2faae0126114a169c64845d6126c98888886117d58c612d5c565b60408051602081019690965273ffffffffffffffffffffffffffffffffffffffff94851690860152929091166060840152608083015260a082015260c0810186905260e001604051602081830303815290604052805190602001209050600061183d82612d91565b9050600061184d82878787612dd9565b90508973ffffffffffffffffffffffffffffffffffffffff168173ffffffffffffffffffffffffffffffffffffffff16146118ca5760405162461bcd60e51b815260206004820152601e60248201527f45524332305065726d69743a20696e76616c6964207369676e617475726500006044820152606401610c6d565b6118d58a8a8a611d82565b50505050505050505050565b60105460009077010000000000000000000000000000000000000000000000900462ffffff16810361193f576040517ff50a3b5200000000000000000000000000000000000000000000000000000000815260040160405180910390fd5b61194882611725565b831115611981576040517fdf53dde200000000000000000000000000000000000000000000000000000000815260040160405180910390fd5b600061198c84610afa565b6010549091506119bc9077010000000000000000000000000000000000000000000000900462ffffff1642614034565b73ffffffffffffffffffffffffffffffffffffffff84166000908152600f6020526040812080547fffffffffffffffffffffffffffffffffffffff00000000000000000000000000166cffffffffffffffffffffffffff9390931692909217825560019091018054869290611a32908490613ff2565b90915550610b8490503360105473ffffffffffffffffffffffffffffffffffffffff168587856128c5565b6000611a68816122e7565b8280611aa0576040517f6317a0fa00000000000000000000000000000000000000000000000000000000815260040160405180910390fd5b610bd88484612bee565b73ffffffffffffffffffffffffffffffffffffffff8116600090815260046020526040812054610a3d565b600080600e5442611ae69190613f92565b90506170808110611af957600091505090565b600d5461708090611b0a8383613f92565b611b149190614061565b611b1e91906140a7565b91505090565b336000908152600f60205260409020600181015481546cffffffffffffffffffffffffff164210611c0d5781547fffffffffffffffffffffffffffffffffffffff00000000000000000000000000168255600060018301556010546040517ff3fef3a300000000000000000000000000000000000000000000000000000000815273ffffffffffffffffffffffffffffffffffffffff8581166004830152602482018490529091169063f3fef3a390604401600060405180830381600087803b158015611bf057600080fd5b505af1158015611c04573d6000803e3d6000fd5b50505050505050565b6040517fe8ebb09a00000000000000000000000000000000000000000000000000000000815260040160405180910390fd5b7ff988e4fb62b8e14f4820fed03192306ddf4d7dbfa215595ba1c6ba4b76b369ee611c69816122e7565b82611c8960015473ffffffffffffffffffffffffffffffffffffffff1690565b73ffffffffffffffffffffffffffffffffffffffff168173ffffffffffffffffffffffffffffffffffffffff1603611ced576040517ffe7c574000000000000000000000000000000000000000000000000000000000815260040160405180910390fd5b600083611d1a577f8f7080408a06296c6347c87c115ad99669141ae35eae974c12dff8bd01680cb6611d3c565b7f0a4af4bcc1942295207d9f047442ebdae6170a6e324850f758b14cf99b65c3bd5b90506114b68186611f31565b6000610b84611d556108e0565b611d60906001613ff2565b611d6c6000600a614202565b600654611d799190613ff2565b85919085612e01565b73ffffffffffffffffffffffffffffffffffffffff8316611e0a5760405162461bcd60e51b8152602060048201526024808201527f45524332303a20617070726f76652066726f6d20746865207a65726f2061646460448201527f72657373000000000000000000000000000000000000000000000000000000006064820152608401610c6d565b73ffffffffffffffffffffffffffffffffffffffff8216611e935760405162461bcd60e51b815260206004820152602260248201527f45524332303a20617070726f766520746f20746865207a65726f20616464726560448201527f73730000000000000000000000000000000000000000000000000000000000006064820152608401610c6d565b73ffffffffffffffffffffffffffffffffffffffff83811660008181526005602090815260408083209487168084529482529182902085905590518481527f8c5be1e5ebec7d5bd14f71427d1e84f3dd0314c0f7b2291e5b200ac8c7c3b925910160405180910390a3505050565b6000610b84611f1182600a614202565b600654611f1e9190613ff2565b611f266108e0565b611d79906001613ff2565b81611fef5760015460405173ffffffffffffffffffffffffffffffffffffffff8084169216907ff8ccb027dfcd135e000e9d45e6cc2d662578a8825d4c45b5e32e0adf67e79ec690600090a3600154611fa29060009073ffffffffffffffffffffffffffffffffffffffff16612bee565b6001805473ffffffffffffffffffffffffffffffffffffffff83167fffffffffffffffffffffffff0000000000000000000000000000000000000000918216179091556002805490911690555b611ff98282612e5e565b5050565b73ffffffffffffffffffffffffffffffffffffffff8381166000908152600560209081526040808320938616835292905220547fffffffffffffffffffffffffffffffffffffffffffffffffffffffffffffffff8114610bd857818110156120a75760405162461bcd60e51b815260206004820152601d60248201527f45524332303a20696e73756666696369656e7420616c6c6f77616e63650000006044820152606401610c6d565b610bd88484848403611d82565b73ffffffffffffffffffffffffffffffffffffffff831661213d5760405162461bcd60e51b815260206004820152602560248201527f45524332303a207472616e736665722066726f6d20746865207a65726f20616460448201527f64726573730000000000000000000000000000000000000000000000000000006064820152608401610c6d565b73ffffffffffffffffffffffffffffffffffffffff82166121c65760405162461bcd60e51b815260206004820152602360248201527f45524332303a207472616e7366657220746f20746865207a65726f206164647260448201527f65737300000000000000000000000000000000000000000000000000000000006064820152608401610c6d565b6121d1838383612f4e565b73ffffffffffffffffffffffffffffffffffffffff83166000908152600460205260409020548181101561226d5760405162461bcd60e51b815260206004820152602660248201527f45524332303a207472616e7366657220616d6f756e742065786365656473206260448201527f616c616e636500000000000000000000000000000000000000000000000000006064820152608401610c6d565b73ffffffffffffffffffffffffffffffffffffffff80851660008181526004602052604080822086860390559286168082529083902080548601905591517fddf252ad1be2c89b69c2b068fc378daa952ba7f163c4a11628f55a4df523b3ef906122da9086815260200190565b60405180910390a3610bd8565b611621813361306d565b60003073ffffffffffffffffffffffffffffffffffffffff7f00000000000000000000000000000000000000000000000000000000000000001614801561235757507f000000000000000000000000000000000000000000000000000000000000000046145b1561238157507f000000000000000000000000000000000000000000000000000000000000000090565b6109a5604080517f8b73c3c69bb8fe3d512ecc4cf759cc79239f7b179b0ffacaa9a75d522b39400f60208201527f0000000000000000000000000000000000000000000000000000000000000000918101919091527f000000000000000000000000000000000000000000000000000000000000000060608201524660808201523060a082015260009060c00160405160208183030381529060405280519060200120905090565b612431612ca5565b818060000361246c576040517f2c5211c600000000000000000000000000000000000000000000000000000000815260040160405180910390fd5b81806000036124a7576040517f2c5211c600000000000000000000000000000000000000000000000000000000815260040160405180910390fd5b73ffffffffffffffffffffffffffffffffffffffff861660009081527f0345e2c1516a911f2186107e484f2e7d92495a743775dfd87a2ea9407a42f659602052604090205460ff168061253e575073ffffffffffffffffffffffffffffffffffffffff851660009081527f0345e2c1516a911f2186107e484f2e7d92495a743775dfd87a2ea9407a42f659602052604090205460ff165b15612575576040517ff50a3b5200000000000000000000000000000000000000000000000000000000815260040160405180910390fd5b6125818686868661310b565b6125896131a9565b5050610bd86001600355565b606060ff83146125af576125a883613204565b9050610a3d565b8180546125bb90613fa5565b80601f01602080910402602001604051908101604052809291908181526020018280546125e790613fa5565b80156126345780601f1061260957610100808354040283529160200191612634565b820191906000526020600020905b81548152906001019060200180831161261757829003601f168201915b50505050509050610a3d565b73ffffffffffffffffffffffffffffffffffffffff82166126c95760405162461bcd60e51b815260206004820152602160248201527f45524332303a206275726e2066726f6d20746865207a65726f2061646472657360448201527f73000000000000000000000000000000000000000000000000000000000000006064820152608401610c6d565b6126d582600083612f4e565b73ffffffffffffffffffffffffffffffffffffffff8216600090815260046020526040902054818110156127715760405162461bcd60e51b815260206004820152602260248201527f45524332303a206275726e20616d6f756e7420657863656564732062616c616e60448201527f63650000000000000000000000000000000000000000000000000000000000006064820152608401610c6d565b73ffffffffffffffffffffffffffffffffffffffff831660008181526004602090815260408083208686039055600680548790039055518581529192917fddf252ad1be2c89b69c2b068fc378daa952ba7f163c4a11628f55a4df523b3ef910160405180910390a3505050565b73ffffffffffffffffffffffffffffffffffffffff82166128415760405162461bcd60e51b815260206004820152601f60248201527f45524332303a206d696e7420746f20746865207a65726f2061646472657373006044820152606401610c6d565b61284d60008383612f4e565b806006600082825461285f9190613ff2565b909155505073ffffffffffffffffffffffffffffffffffffffff82166000818152600460209081526040808320805486019055518481527fddf252ad1be2c89b69c2b068fc378daa952ba7f163c4a11628f55a4df523b3ef910160405180910390a35050565b6128cd612ca5565b8180600003612908576040517f2c5211c600000000000000000000000000000000000000000000000000000000815260040160405180910390fd5b8180600003612943576040517f2c5211c600000000000000000000000000000000000000000000000000000000815260040160405180910390fd5b73ffffffffffffffffffffffffffffffffffffffff871660009081527f1b6393e878bd556f19ddc4d62b1faf8b79d68ac5561b3277e15c2f28fb3b2820602052604090205460ff16806129da575073ffffffffffffffffffffffffffffffffffffffff861660009081527f1b6393e878bd556f19ddc4d62b1faf8b79d68ac5561b3277e15c2f28fb3b2820602052604090205460ff165b15612a11576040517ff50a3b5200000000000000000000000000000000000000000000000000000000815260040160405180910390fd5b612a1e8787878787613243565b612a266131a9565b50506114b66001600355565b60405173ffffffffffffffffffffffffffffffffffffffff8316602482015260448101829052610fc69084907fa9059cbb00000000000000000000000000000000000000000000000000000000906064015b604080517fffffffffffffffffffffffffffffffffffffffffffffffffffffffffffffffe08184030181529190526020810180517bffffffffffffffffffffffffffffffffffffffffffffffffffffffff167fffffffff0000000000000000000000000000000000000000000000000000000090931692909217909152613344565b6000612b1182611725565b841115612b605760405162461bcd60e51b815260206004820152601f60248201527f455243343632363a207769746864726177206d6f7265207468616e206d6178006044820152606401610c6d565b6000612b6b85610afa565b905061133d33858588856128c5565b6000612b8582611aaa565b841115612bd45760405162461bcd60e51b815260206004820152601d60248201527f455243343632363a2072656465656d206d6f7265207468616e206d61780000006044820152606401610c6d565b6000612bdf85610ad5565b905061133d33858584896128c5565b60008281526020818152604080832073ffffffffffffffffffffffffffffffffffffffff8516845290915290205460ff1615611ff95760008281526020818152604080832073ffffffffffffffffffffffffffffffffffffffff8516808552925280832080547fffffffffffffffffffffffffffffffffffffffffffffffffffffffffffffff0016905551339285917ff6391f5c32d9c69d2a47ea670b442974b53935d1edc7fd64eb21e047a839171b9190a45050565b600260035403612cf75760405162461bcd60e51b815260206004820152601f60248201527f5265656e7472616e637947756172643a207265656e7472616e742063616c6c006044820152606401610c6d565b6002600355565b60405173ffffffffffffffffffffffffffffffffffffffff80851660248301528316604482015260648101829052610bd89085907f23b872dd0000000000000000000000000000000000000000000000000000000090608401612a84565b73ffffffffffffffffffffffffffffffffffffffff81166000908152600b602052604090208054600181018255905b50919050565b6000610a3d612d9e6122f1565b836040517f19010000000000000000000000000000000000000000000000000000000000008152600281019290925260228201526042902090565b6000806000612dea87878787613439565b91509150612df781613528565b5095945050505050565b600080612e0f86868661368d565b90506001836002811115612e2557612e25614211565b148015612e42575060008480612e3d57612e3d614078565b868809115b15612e5557612e52600182613ff2565b90505b95945050505050565b60008281526020818152604080832073ffffffffffffffffffffffffffffffffffffffff8516845290915290205460ff16611ff95760008281526020818152604080832073ffffffffffffffffffffffffffffffffffffffff85168452909152902080547fffffffffffffffffffffffffffffffffffffffffffffffffffffffffffffff00166001179055612ef03390565b73ffffffffffffffffffffffffffffffffffffffff168173ffffffffffffffffffffffffffffffffffffffff16837f2f8788117e7eff1d82e926ec794901d17c78024a50270940304540a733656f0d60405160405180910390a45050565b73ffffffffffffffffffffffffffffffffffffffff831660009081527f1b6393e878bd556f19ddc4d62b1faf8b79d68ac5561b3277e15c2f28fb3b2820602052604090205460ff168015612fb7575073ffffffffffffffffffffffffffffffffffffffff821615155b15612fee576040517ff50a3b5200000000000000000000000000000000000000000000000000000000815260040160405180910390fd5b73ffffffffffffffffffffffffffffffffffffffff821660009081527f1b6393e878bd556f19ddc4d62b1faf8b79d68ac5561b3277e15c2f28fb3b2820602052604090205460ff1615610fc6576040517ff50a3b5200000000000000000000000000000000000000000000000000000000815260040160405180910390fd5b60008281526020818152604080832073ffffffffffffffffffffffffffffffffffffffff8516845290915290205460ff16611ff9576130ab8161379d565b6130b68360206137bc565b6040516020016130c7929190614240565b604080517fffffffffffffffffffffffffffffffffffffffffffffffffffffffffffffffe08184030181529082905262461bcd60e51b8252610c6d91600401613c57565b6131377f0000000000000000000000000000000000000000000000000000000000000000853085612cfe565b61314183826127de565b8273ffffffffffffffffffffffffffffffffffffffff168473ffffffffffffffffffffffffffffffffffffffff167fdcbc1c05240f31ff3ad067ef1ee35ce4997762752e3a095284754544f4c709d78484604051610fb8929190918252602082015260400190565b60006131b460065490565b90506000811180156131cd5750670de0b6b3a764000081105b15611621576040517fb4b836aa00000000000000000000000000000000000000000000000000000000815260040160405180910390fd5b60606000613211836139e5565b604080516020808252818301909252919250600091906020820181803683375050509182525060208101929092525090565b8273ffffffffffffffffffffffffffffffffffffffff168573ffffffffffffffffffffffffffffffffffffffff161461328157613281838683611ffd565b61328b8382612640565b6132b67f00000000000000000000000000000000000000000000000000000000000000008584612a32565b8273ffffffffffffffffffffffffffffffffffffffff168473ffffffffffffffffffffffffffffffffffffffff168673ffffffffffffffffffffffffffffffffffffffff167ffbde797d201c681b91056529119e0b02407c7bb96a4a2c75c01fc9667232c8db8585604051613335929190918252602082015260400190565b60405180910390a45050505050565b60006133a6826040518060400160405280602081526020017f5361666545524332303a206c6f772d6c6576656c2063616c6c206661696c65648152508573ffffffffffffffffffffffffffffffffffffffff16613a269092919063ffffffff16565b90508051600014806133c75750808060200190518101906133c791906142c1565b610fc65760405162461bcd60e51b815260206004820152602a60248201527f5361666545524332303a204552433230206f7065726174696f6e20646964206e60448201527f6f742073756363656564000000000000000000000000000000000000000000006064820152608401610c6d565b6000807f7fffffffffffffffffffffffffffffff5d576e7357a4501ddfe92f46681b20a0831115613470575060009050600361351f565b6040805160008082526020820180845289905260ff881692820192909252606081018690526080810185905260019060a0016020604051602081039080840390855afa1580156134c4573d6000803e3d6000fd5b50506040517fffffffffffffffffffffffffffffffffffffffffffffffffffffffffffffffe0015191505073ffffffffffffffffffffffffffffffffffffffff81166135185760006001925092505061351f565b9150600090505b94509492505050565b600081600481111561353c5761353c614211565b036135445750565b600181600481111561355857613558614211565b036135a55760405162461bcd60e51b815260206004820152601860248201527f45434453413a20696e76616c6964207369676e617475726500000000000000006044820152606401610c6d565b60028160048111156135b9576135b9614211565b036136065760405162461bcd60e51b815260206004820152601f60248201527f45434453413a20696e76616c6964207369676e6174757265206c656e677468006044820152606401610c6d565b600381600481111561361a5761361a614211565b036116215760405162461bcd60e51b815260206004820152602260248201527f45434453413a20696e76616c6964207369676e6174757265202773272076616c60448201527f75650000000000000000000000000000000000000000000000000000000000006064820152608401610c6d565b600080807fffffffffffffffffffffffffffffffffffffffffffffffffffffffffffffffff858709858702925082811083820303915050806000036136e5578382816136db576136db614078565b0492505050610b84565b8084116137345760405162461bcd60e51b815260206004820152601560248201527f4d6174683a206d756c446976206f766572666c6f7700000000000000000000006044820152606401610c6d565b60008486880960026001871981018816978890046003810283188082028403028082028403028082028403028082028403028082028403029081029092039091026000889003889004909101858311909403939093029303949094049190911702949350505050565b6060610a3d73ffffffffffffffffffffffffffffffffffffffff831660145b606060006137cb836002614061565b6137d6906002613ff2565b67ffffffffffffffff8111156137ee576137ee614005565b6040519080825280601f01601f191660200182016040528015613818576020820181803683370190505b5090507f30000000000000000000000000000000000000000000000000000000000000008160008151811061384f5761384f6142de565b60200101907effffffffffffffffffffffffffffffffffffffffffffffffffffffffffffff1916908160001a9053507f7800000000000000000000000000000000000000000000000000000000000000816001815181106138b2576138b26142de565b60200101907effffffffffffffffffffffffffffffffffffffffffffffffffffffffffffff1916908160001a90535060006138ee846002614061565b6138f9906001613ff2565b90505b6001811115613996577f303132333435363738396162636465660000000000000000000000000000000085600f166010811061393a5761393a6142de565b1a60f81b828281518110613950576139506142de565b60200101907effffffffffffffffffffffffffffffffffffffffffffffffffffffffffffff1916908160001a90535060049490941c9361398f8161430d565b90506138fc565b508315610b845760405162461bcd60e51b815260206004820181905260248201527f537472696e67733a20686578206c656e67746820696e73756666696369656e746044820152606401610c6d565b600060ff8216601f811115610a3d576040517fb3512b0c00000000000000000000000000000000000000000000000000000000815260040160405180910390fd5b606061133d8484600085856000808673ffffffffffffffffffffffffffffffffffffffff168587604051613a5a9190614342565b60006040518083038185875af1925050503d8060008114613a97576040519150601f19603f3d011682016040523d82523d6000602084013e613a9c565b606091505b5091509150613aad87838387613ab8565b979650505050505050565b60608315613b34578251600003613b2d5773ffffffffffffffffffffffffffffffffffffffff85163b613b2d5760405162461bcd60e51b815260206004820152601d60248201527f416464726573733a2063616c6c20746f206e6f6e2d636f6e74726163740000006044820152606401610c6d565b508161133d565b61133d8383815115613b495781518083602001fd5b8060405162461bcd60e51b8152600401610c6d9190613c57565b803573ffffffffffffffffffffffffffffffffffffffff81168114613b8757600080fd5b919050565b600060208284031215613b9e57600080fd5b610b8482613b63565b600060208284031215613bb957600080fd5b81357fffffffff0000000000000000000000000000000000000000000000000000000081168114610b8457600080fd5b60005b83811015613c04578181015183820152602001613bec565b50506000910152565b60008151808452613c25816020860160208601613be9565b601f017fffffffffffffffffffffffffffffffffffffffffffffffffffffffffffffffe0169290920160200192915050565b602081526000610b846020830184613c0d565b600060208284031215613c7c57600080fd5b5035919050565b60008060408385031215613c9657600080fd5b613c9f83613b63565b946020939093013593505050565b600080600060608486031215613cc257600080fd5b613ccb84613b63565b9250613cd960208501613b63565b9150604084013590509250925092565b60008060408385031215613cfc57600080fd5b82359150613d0c60208401613b63565b90509250929050565b7fff00000000000000000000000000000000000000000000000000000000000000881681526000602060e081840152613d5160e084018a613c0d565b8381036040850152613d63818a613c0d565b6060850189905273ffffffffffffffffffffffffffffffffffffffff8816608086015260a0850187905284810360c0860152855180825283870192509083019060005b81811015613dc257835183529284019291840191600101613da6565b50909c9b505050505050505050505050565b60008060408385031215613de757600080fd5b613df083613b63565b9150613d0c60208401613b63565b600080600060608486031215613e1357600080fd5b613e1c84613b63565b925060208401359150613e3160408501613b63565b90509250925092565b600080600060608486031215613e4f57600080fd5b83359250613e5f60208501613b63565b9150613e3160408501613b63565b801515811461162157600080fd5b60008060408385031215613e8e57600080fd5b613e9783613b63565b91506020830135613ea781613e6d565b809150509250929050565b600060208284031215613ec457600080fd5b813562ffffff81168114610b8457600080fd5b600080600080600080600060e0888a031215613ef257600080fd5b613efb88613b63565b9650613f0960208901613b63565b95506040880135945060608801359350608088013560ff81168114613f2d57600080fd5b9699959850939692959460a0840135945060c09093013592915050565b600060208284031215613f5c57600080fd5b5051919050565b7f4e487b7100000000000000000000000000000000000000000000000000000000600052601160045260246000fd5b81810381811115610a3d57610a3d613f63565b600181811c90821680613fb957607f821691505b602082108103612d8b577f4e487b7100000000000000000000000000000000000000000000000000000000600052602260045260246000fd5b80820180821115610a3d57610a3d613f63565b7f4e487b7100000000000000000000000000000000000000000000000000000000600052604160045260246000fd5b6cffffffffffffffffffffffffff81811683821601908082111561405a5761405a613f63565b5092915050565b8082028115828204841417610a3d57610a3d613f63565b7f4e487b7100000000000000000000000000000000000000000000000000000000600052601260045260246000fd5b6000826140dd577f4e487b7100000000000000000000000000000000000000000000000000000000600052601260045260246000fd5b500490565b600181815b8085111561413b57817fffffffffffffffffffffffffffffffffffffffffffffffffffffffffffffffff0482111561412157614121613f63565b8085161561412e57918102915b93841c93908002906140e7565b509250929050565b60008261415257506001610a3d565b8161415f57506000610a3d565b8160018114614175576002811461417f5761419b565b6001915050610a3d565b60ff84111561419057614190613f63565b50506001821b610a3d565b5060208310610133831016604e8410600b84101617156141be575081810a610a3d565b6141c883836140e2565b807fffffffffffffffffffffffffffffffffffffffffffffffffffffffffffffffff048211156141fa576141fa613f63565b029392505050565b6000610b8460ff841683614143565b7f4e487b7100000000000000000000000000000000000000000000000000000000600052602160045260246000fd5b7f416363657373436f6e74726f6c3a206163636f756e7420000000000000000000815260008351614278816017850160208801613be9565b7f206973206d697373696e6720726f6c652000000000000000000000000000000060179184019182015283516142b5816028840160208801613be9565b01602801949350505050565b6000602082840312156142d357600080fd5b8151610b8481613e6d565b7f4e487b7100000000000000000000000000000000000000000000000000000000600052603260045260246000fd5b60008161431c5761431c613f63565b507fffffffffffffffffffffffffffffffffffffffffffffffffffffffffffffffff0190565b60008251614354818460208701613be9565b919091019291505056fea26469706673582212209f33e8a32cfd18ad315bb721dfc3a288f6259992e833dfa469bce0de9cd07a5664736f6c6343000813003360c060405234801561001057600080fd5b506040516102cf3803806102cf83398101604081905261002f91610062565b6001600160a01b039182166080521660a052610095565b80516001600160a01b038116811461005d57600080fd5b919050565b6000806040838503121561007557600080fd5b61007e83610046565b915061008c60208401610046565b90509250929050565b60805160a0516102166100b9600039600061010001526000605d01526102166000f3fe608060405234801561001057600080fd5b506004361061002b5760003560e01c8063f3fef3a314610030575b600080fd5b61004361003e366004610172565b610045565b005b3373ffffffffffffffffffffffffffffffffffffffff7f000000000000000000000000000000000000000000000000000000000000000016146100b4576040517f17dd114500000000000000000000000000000000000000000000000000000000815260040160405180910390fd5b6040517fa9059cbb00000000000000000000000000000000000000000000000000000000815273ffffffffffffffffffffffffffffffffffffffff8381166004830152602482018390527f0000000000000000000000000000000000000000000000000000000000000000169063a9059cbb906044016020604051808303816000875af1158015610149573d6000803e3d6000fd5b505050506040513d601f19601f8201168201806040525081019061016d91906101b7565b505050565b6000806040838503121561018557600080fd5b823573ffffffffffffffffffffffffffffffffffffffff811681146101a957600080fd5b946020939093013593505050565b6000602082840312156101c957600080fd5b815180151581146101d957600080fd5b939250505056fea26469706673582212209602d9dd14976758f4e9138706ea9b8e7bb322bf8a176e0b6e521732858faeff64736f6c63430008130033","linkReferences":{}},"methodIdentifiers":{"DEFAULT_ADMIN_ROLE()":"a217fddf","DOMAIN_SEPARATOR()":"3644e515","MAX_COOLDOWN_DURATION()":"1e9049cf","acceptAdmin()":"0e18b681","addToBlacklist(address,bool)":"f298f42c","allowance(address,address)":"dd62ed3e","approve(address,uint256)":"095ea7b3","asset()":"38d52e0f","balanceOf(address)":"70a08231","convertToAssets(uint256)":"07a2d13a","convertToShares(uint256)":"c6e6f592","cooldownAssets(uint256,address)":"d50655b0","cooldownDuration()":"35269315","cooldownShares(uint256,address)":"a2af4900","cooldowns(address)":"01320fe2","decimals()":"313ce567","decreaseAllowance(address,uint256)":"a457c2d7","deposit(uint256,address)":"6e553f65","eip712Domain()":"84b0196e","getRoleAdmin(bytes32)":"248a9ca3","getUnvestedAmount()":"e7c2a608","grantRole(bytes32,address)":"2f2ff15d","hasRole(bytes32,address)":"91d14854","increaseAllowance(address,uint256)":"39509351","lastDistributionTimestamp()":"20950933","maxDeposit(address)":"402d267d","maxMint(address)":"c63d75b6","maxRedeem(address)":"d905777e","maxWithdraw(address)":"ce96cb77","mint(uint256,address)":"94bf804d","name()":"06fdde03","nonces(address)":"7ecebe00","owner()":"8da5cb5b","permit(address,address,uint256,uint256,uint8,bytes32,bytes32)":"d505accf","previewDeposit(uint256)":"ef8b30f7","previewMint(uint256)":"b3d7f6b9","previewRedeem(uint256)":"4cdad506","previewWithdraw(uint256)":"0a28a477","redeem(uint256,address,address)":"ba087652","redistributeLockedAmount(address,address)":"a0776b82","removeFromBlacklist(address,bool)":"c336a084","renounceRole(bytes32,address)":"36568abe","rescueTokens(address,uint256,address)":"b37fd190","revokeRole(bytes32,address)":"d547741f","setCooldownDuration(uint24)":"ce23eb3c","silo()":"eb3beb29","supportsInterface(bytes4)":"01ffc9a7","symbol()":"95d89b41","totalAssets()":"01e1d114","totalSupply()":"18160ddd","transfer(address,uint256)":"a9059cbb","transferAdmin(address)":"75829def","transferFrom(address,address,uint256)":"23b872dd","transferInRewards(uint256)":"c80ef110","unstake(address)":"f2888dbb","vestingAmount()":"00728f76","withdraw(uint256,address,address)":"b460af94"},"id":2}